{
  "contractName": "PetShop",
  "abi": [
    {
      "inputs": [],
      "stateMutability": "nonpayable",
      "type": "constructor"
    },
    {
      "anonymous": false,
      "inputs": [
        {
          "indexed": true,
          "internalType": "address",
          "name": "owner",
          "type": "address"
        },
        {
          "indexed": true,
          "internalType": "address",
          "name": "approved",
          "type": "address"
        },
        {
          "indexed": true,
          "internalType": "uint256",
          "name": "tokenId",
          "type": "uint256"
        }
      ],
      "name": "Approval",
      "type": "event"
    },
    {
      "anonymous": false,
      "inputs": [
        {
          "indexed": true,
          "internalType": "address",
          "name": "owner",
          "type": "address"
        },
        {
          "indexed": true,
          "internalType": "address",
          "name": "operator",
          "type": "address"
        },
        {
          "indexed": false,
          "internalType": "bool",
          "name": "approved",
          "type": "bool"
        }
      ],
      "name": "ApprovalForAll",
      "type": "event"
    },
    {
      "anonymous": false,
      "inputs": [
        {
          "indexed": true,
          "internalType": "address",
          "name": "previousOwner",
          "type": "address"
        },
        {
          "indexed": true,
          "internalType": "address",
          "name": "newOwner",
          "type": "address"
        }
      ],
      "name": "OwnershipTransferred",
      "type": "event"
    },
    {
      "anonymous": false,
      "inputs": [
        {
          "indexed": true,
          "internalType": "address",
          "name": "from",
          "type": "address"
        },
        {
          "indexed": true,
          "internalType": "address",
          "name": "to",
          "type": "address"
        },
        {
          "indexed": true,
          "internalType": "uint256",
          "name": "tokenId",
          "type": "uint256"
        }
      ],
      "name": "Transfer",
      "type": "event"
    },
    {
      "inputs": [
        {
          "internalType": "address",
          "name": "to",
          "type": "address"
        },
        {
          "internalType": "uint256",
          "name": "tokenId",
          "type": "uint256"
        }
      ],
      "name": "approve",
      "outputs": [],
      "stateMutability": "nonpayable",
      "type": "function"
    },
    {
      "inputs": [
        {
          "internalType": "address",
          "name": "owner",
          "type": "address"
        }
      ],
      "name": "balanceOf",
      "outputs": [
        {
          "internalType": "uint256",
          "name": "",
          "type": "uint256"
        }
      ],
      "stateMutability": "view",
      "type": "function",
      "constant": true
    },
    {
      "inputs": [
        {
          "internalType": "uint256",
          "name": "tokenId",
          "type": "uint256"
        }
      ],
      "name": "getApproved",
      "outputs": [
        {
          "internalType": "address",
          "name": "",
          "type": "address"
        }
      ],
      "stateMutability": "view",
      "type": "function",
      "constant": true
    },
    {
      "inputs": [
        {
          "internalType": "address",
          "name": "owner",
          "type": "address"
        },
        {
          "internalType": "address",
          "name": "operator",
          "type": "address"
        }
      ],
      "name": "isApprovedForAll",
      "outputs": [
        {
          "internalType": "bool",
          "name": "",
          "type": "bool"
        }
      ],
      "stateMutability": "view",
      "type": "function",
      "constant": true
    },
    {
      "inputs": [],
      "name": "name",
      "outputs": [
        {
          "internalType": "string",
          "name": "",
          "type": "string"
        }
      ],
      "stateMutability": "view",
      "type": "function",
      "constant": true
    },
    {
      "inputs": [],
      "name": "owner",
      "outputs": [
        {
          "internalType": "address",
          "name": "",
          "type": "address"
        }
      ],
      "stateMutability": "view",
      "type": "function",
      "constant": true
    },
    {
      "inputs": [
        {
          "internalType": "uint256",
          "name": "tokenId",
          "type": "uint256"
        }
      ],
      "name": "ownerOf",
      "outputs": [
        {
          "internalType": "address",
          "name": "",
          "type": "address"
        }
      ],
      "stateMutability": "view",
      "type": "function",
      "constant": true
    },
    {
      "inputs": [
        {
          "internalType": "uint256",
          "name": "",
          "type": "uint256"
        }
      ],
      "name": "petsForSale",
      "outputs": [
        {
          "internalType": "uint256",
          "name": "",
          "type": "uint256"
        }
      ],
      "stateMutability": "view",
      "type": "function",
      "constant": true
    },
    {
      "inputs": [],
      "name": "renounceOwnership",
      "outputs": [],
      "stateMutability": "nonpayable",
      "type": "function"
    },
    {
      "inputs": [
        {
          "internalType": "address",
          "name": "from",
          "type": "address"
        },
        {
          "internalType": "address",
          "name": "to",
          "type": "address"
        },
        {
          "internalType": "uint256",
          "name": "tokenId",
          "type": "uint256"
        }
      ],
      "name": "safeTransferFrom",
      "outputs": [],
      "stateMutability": "nonpayable",
      "type": "function"
    },
    {
      "inputs": [
        {
          "internalType": "address",
          "name": "from",
          "type": "address"
        },
        {
          "internalType": "address",
          "name": "to",
          "type": "address"
        },
        {
          "internalType": "uint256",
          "name": "tokenId",
          "type": "uint256"
        },
        {
          "internalType": "bytes",
          "name": "_data",
          "type": "bytes"
        }
      ],
      "name": "safeTransferFrom",
      "outputs": [],
      "stateMutability": "nonpayable",
      "type": "function"
    },
    {
      "inputs": [
        {
          "internalType": "address",
          "name": "operator",
          "type": "address"
        },
        {
          "internalType": "bool",
          "name": "approved",
          "type": "bool"
        }
      ],
      "name": "setApprovalForAll",
      "outputs": [],
      "stateMutability": "nonpayable",
      "type": "function"
    },
    {
      "inputs": [
        {
          "internalType": "bytes4",
          "name": "interfaceId",
          "type": "bytes4"
        }
      ],
      "name": "supportsInterface",
      "outputs": [
        {
          "internalType": "bool",
          "name": "",
          "type": "bool"
        }
      ],
      "stateMutability": "view",
      "type": "function",
      "constant": true
    },
    {
      "inputs": [],
      "name": "symbol",
      "outputs": [
        {
          "internalType": "string",
          "name": "",
          "type": "string"
        }
      ],
      "stateMutability": "view",
      "type": "function",
      "constant": true
    },
    {
      "inputs": [
        {
          "internalType": "uint256",
          "name": "index",
          "type": "uint256"
        }
      ],
      "name": "tokenByIndex",
      "outputs": [
        {
          "internalType": "uint256",
          "name": "",
          "type": "uint256"
        }
      ],
      "stateMutability": "view",
      "type": "function",
      "constant": true
    },
    {
      "inputs": [
        {
          "internalType": "address",
          "name": "owner",
          "type": "address"
        },
        {
          "internalType": "uint256",
          "name": "index",
          "type": "uint256"
        }
      ],
      "name": "tokenOfOwnerByIndex",
      "outputs": [
        {
          "internalType": "uint256",
          "name": "",
          "type": "uint256"
        }
      ],
      "stateMutability": "view",
      "type": "function",
      "constant": true
    },
    {
      "inputs": [],
      "name": "totalSupply",
      "outputs": [
        {
          "internalType": "uint256",
          "name": "",
          "type": "uint256"
        }
      ],
      "stateMutability": "view",
      "type": "function",
      "constant": true
    },
    {
      "inputs": [
        {
          "internalType": "address",
          "name": "from",
          "type": "address"
        },
        {
          "internalType": "address",
          "name": "to",
          "type": "address"
        },
        {
          "internalType": "uint256",
          "name": "tokenId",
          "type": "uint256"
        }
      ],
      "name": "transferFrom",
      "outputs": [],
      "stateMutability": "nonpayable",
      "type": "function"
    },
    {
      "inputs": [
        {
          "internalType": "address",
          "name": "newOwner",
          "type": "address"
        }
      ],
      "name": "transferOwnership",
      "outputs": [],
      "stateMutability": "nonpayable",
      "type": "function"
    },
    {
      "inputs": [
        {
          "internalType": "uint256",
          "name": "tokenId",
          "type": "uint256"
        }
      ],
      "name": "tokenURI",
      "outputs": [
        {
          "internalType": "string",
          "name": "",
          "type": "string"
        }
      ],
      "stateMutability": "view",
      "type": "function",
      "constant": true
    },
    {
      "inputs": [
        {
          "internalType": "string",
          "name": "_tokenURI",
          "type": "string"
        },
        {
          "internalType": "uint256",
          "name": "_price",
          "type": "uint256"
        }
      ],
      "name": "mintPetNft",
      "outputs": [
        {
          "internalType": "uint256",
          "name": "",
          "type": "uint256"
        }
      ],
      "stateMutability": "nonpayable",
      "type": "function"
    },
    {
      "inputs": [
        {
          "internalType": "uint256",
          "name": "_tokenId",
          "type": "uint256"
        }
      ],
      "name": "buyPetNft",
      "outputs": [],
      "stateMutability": "payable",
      "type": "function",
      "payable": true
    }
  ],
  "bytecode": "0x60806040523480156200001157600080fd5b506040518060400160405280600a81526020017f50657453686f704e4654000000000000000000000000000000000000000000008152506040518060400160405280600481526020017f504e46540000000000000000000000000000000000000000000000000000000081525081600090805190602001906200009692919062000171565b508060019080519060200190620000af92919062000171565b5050506000620000c46200016960201b60201c565b905080600a60006101000a81548173ffffffffffffffffffffffffffffffffffffffff021916908373ffffffffffffffffffffffffffffffffffffffff1602179055508073ffffffffffffffffffffffffffffffffffffffff16600073ffffffffffffffffffffffffffffffffffffffff167f8be0079c531659141344cd1fd0a4f28419497f9722a3daafe3b4186f6b6457e060405160405180910390a35062000286565b600033905090565b8280546200017f9062000221565b90600052602060002090601f016020900481019282620001a35760008555620001ef565b82601f10620001be57805160ff1916838001178555620001ef565b82800160010185558215620001ef579182015b82811115620001ee578251825591602001919060010190620001d1565b5b509050620001fe919062000202565b5090565b5b808211156200021d57600081600090555060010162000203565b5090565b600060028204905060018216806200023a57607f821691505b6020821081141562000251576200025062000257565b5b50919050565b7f4e487b7100000000000000000000000000000000000000000000000000000000600052602260045260246000fd5b613b4f80620002966000396000f3fe6080604052600436106101355760003560e01c80636da4ae2f116100ab57806395d89b411161006f57806395d89b4114610451578063a22cb4651461047c578063b88d4fde146104a5578063c87b56dd146104ce578063e985e9c51461050b578063f2fde38b1461054857610135565b80636da4ae2f1461037957806370a0823114610395578063715018a6146103d25780637e328cbb146103e95780638da5cb5b1461042657610135565b806323b872dd116100fd57806323b872dd146102335780632aba97d01461025c5780632f745c591461029957806342842e0e146102d65780634f6ccce7146102ff5780636352211e1461033c57610135565b806301ffc9a71461013a57806306fdde0314610177578063081812fc146101a2578063095ea7b3146101df57806318160ddd14610208575b600080fd5b34801561014657600080fd5b50610161600480360381019061015c91906129dd565b610571565b60405161016e91906133e7565b60405180910390f35b34801561018357600080fd5b5061018c6105eb565b6040516101999190613402565b60405180910390f35b3480156101ae57600080fd5b506101c960048036038101906101c49190612a83565b61067d565b6040516101d69190613380565b60405180910390f35b3480156101eb57600080fd5b50610206600480360381019061020191906129a1565b610702565b005b34801561021457600080fd5b5061021d61081a565b60405161022a91906136e4565b60405180910390f35b34801561023f57600080fd5b5061025a6004803603810190610255919061289b565b610827565b005b34801561026857600080fd5b50610283600480360381019061027e9190612a2f565b610887565b60405161029091906136e4565b60405180910390f35b3480156102a557600080fd5b506102c060048036038101906102bb91906129a1565b61095a565b6040516102cd91906136e4565b60405180910390f35b3480156102e257600080fd5b506102fd60048036038101906102f8919061289b565b6109ff565b005b34801561030b57600080fd5b5061032660048036038101906103219190612a83565b610a1f565b60405161033391906136e4565b60405180910390f35b34801561034857600080fd5b50610363600480360381019061035e9190612a83565b610ab6565b6040516103709190613380565b60405180910390f35b610393600480360381019061038e9190612a83565b610b68565b005b3480156103a157600080fd5b506103bc60048036038101906103b79190612836565b610d01565b6040516103c991906136e4565b60405180910390f35b3480156103de57600080fd5b506103e7610db9565b005b3480156103f557600080fd5b50610410600480360381019061040b9190612a83565b610ef6565b60405161041d91906136e4565b60405180910390f35b34801561043257600080fd5b5061043b610f0e565b6040516104489190613380565b60405180910390f35b34801561045d57600080fd5b50610466610f38565b6040516104739190613402565b60405180910390f35b34801561048857600080fd5b506104a3600480360381019061049e9190612965565b610fca565b005b3480156104b157600080fd5b506104cc60048036038101906104c791906128ea565b61114b565b005b3480156104da57600080fd5b506104f560048036038101906104f09190612a83565b6111ad565b6040516105029190613402565b60405180910390f35b34801561051757600080fd5b50610532600480360381019061052d919061285f565b6112ff565b60405161053f91906133e7565b60405180910390f35b34801561055457600080fd5b5061056f600480360381019061056a9190612836565b611393565b005b60007f780e9d63000000000000000000000000000000000000000000000000000000007bffffffffffffffffffffffffffffffffffffffffffffffffffffffff1916827bffffffffffffffffffffffffffffffffffffffffffffffffffffffff191614806105e457506105e38261153f565b5b9050919050565b6060600080546105fa90613944565b80601f016020809104026020016040519081016040528092919081815260200182805461062690613944565b80156106735780601f1061064857610100808354040283529160200191610673565b820191906000526020600020905b81548152906001019060200180831161065657829003601f168201915b5050505050905090565b600061068882611621565b6106c7576040517f08c379a00000000000000000000000000000000000000000000000000000000081526004016106be906135e4565b60405180910390fd5b6004600083815260200190815260200160002060009054906101000a900473ffffffffffffffffffffffffffffffffffffffff169050919050565b600061070d82610ab6565b90508073ffffffffffffffffffffffffffffffffffffffff168373ffffffffffffffffffffffffffffffffffffffff16141561077e576040517f08c379a000000000000000000000000000000000000000000000000000000000815260040161077590613684565b60405180910390fd5b8073ffffffffffffffffffffffffffffffffffffffff1661079d61168d565b73ffffffffffffffffffffffffffffffffffffffff1614806107cc57506107cb816107c661168d565b6112ff565b5b61080b576040517f08c379a000000000000000000000000000000000000000000000000000000000815260040161080290613504565b60405180910390fd5b6108158383611695565b505050565b6000600880549050905090565b61083861083261168d565b8261174e565b610877576040517f08c379a000000000000000000000000000000000000000000000000000000000815260040161086e906136a4565b60405180910390fd5b61088283838361182c565b505050565b600061089161168d565b73ffffffffffffffffffffffffffffffffffffffff166108af610f0e565b73ffffffffffffffffffffffffffffffffffffffff1614610905576040517f08c379a00000000000000000000000000000000000000000000000000000000081526004016108fc90613604565b60405180910390fd5b61090f600b611a88565b600061091b600b611a9e565b905061092e610928610f0e565b82611aac565b82600c6000838152602001908152602001600020819055506109508185611c7a565b8091505092915050565b600061096583610d01565b82106109a6576040517f08c379a000000000000000000000000000000000000000000000000000000000815260040161099d90613424565b60405180910390fd5b600660008473ffffffffffffffffffffffffffffffffffffffff1673ffffffffffffffffffffffffffffffffffffffff168152602001908152602001600020600083815260200190815260200160002054905092915050565b610a1a8383836040518060200160405280600081525061114b565b505050565b6000610a2961081a565b8210610a6a576040517f08c379a0000000000000000000000000000000000000000000000000000000008152600401610a61906136c4565b60405180910390fd5b60088281548110610aa4577f4e487b7100000000000000000000000000000000000000000000000000000000600052603260045260246000fd5b90600052602060002001549050919050565b6000806002600084815260200190815260200160002060009054906101000a900473ffffffffffffffffffffffffffffffffffffffff169050600073ffffffffffffffffffffffffffffffffffffffff168173ffffffffffffffffffffffffffffffffffffffff161415610b5f576040517f08c379a0000000000000000000000000000000000000000000000000000000008152600401610b5690613544565b60405180910390fd5b80915050919050565b6000610b7382610ab6565b90508073ffffffffffffffffffffffffffffffffffffffff163373ffffffffffffffffffffffffffffffffffffffff161415610be4576040517f08c379a0000000000000000000000000000000000000000000000000000000008152600401610bdb90613584565b60405180910390fd5b6000600c600084815260200190815260200160002054905080341015610c3f576040517f08c379a0000000000000000000000000000000000000000000000000000000008152600401610c3690613664565b60405180910390fd5b610c5a82338560405180602001604052806000815250611cee565b8173ffffffffffffffffffffffffffffffffffffffff166108fc829081150290604051600060405180830381858888f19350505050158015610ca0573d6000803e3d6000fd5b5080341115610cfc573373ffffffffffffffffffffffffffffffffffffffff166108fc8234610ccf919061385a565b9081150290604051600060405180830381858888f19350505050158015610cfa573d6000803e3d6000fd5b505b505050565b60008073ffffffffffffffffffffffffffffffffffffffff168273ffffffffffffffffffffffffffffffffffffffff161415610d72576040517f08c379a0000000000000000000000000000000000000000000000000000000008152600401610d6990613524565b60405180910390fd5b600360008373ffffffffffffffffffffffffffffffffffffffff1673ffffffffffffffffffffffffffffffffffffffff168152602001908152602001600020549050919050565b610dc161168d565b73ffffffffffffffffffffffffffffffffffffffff16610ddf610f0e565b73ffffffffffffffffffffffffffffffffffffffff1614610e35576040517f08c379a0000000000000000000000000000000000000000000000000000000008152600401610e2c90613604565b60405180910390fd5b600073ffffffffffffffffffffffffffffffffffffffff16600a60009054906101000a900473ffffffffffffffffffffffffffffffffffffffff1673ffffffffffffffffffffffffffffffffffffffff167f8be0079c531659141344cd1fd0a4f28419497f9722a3daafe3b4186f6b6457e060405160405180910390a36000600a60006101000a81548173ffffffffffffffffffffffffffffffffffffffff021916908373ffffffffffffffffffffffffffffffffffffffff160217905550565b600c6020528060005260406000206000915090505481565b6000600a60009054906101000a900473ffffffffffffffffffffffffffffffffffffffff16905090565b606060018054610f4790613944565b80601f0160208091040260200160405190810160405280929190818152602001828054610f7390613944565b8015610fc05780601f10610f9557610100808354040283529160200191610fc0565b820191906000526020600020905b815481529060010190602001808311610fa357829003601f168201915b5050505050905090565b610fd261168d565b73ffffffffffffffffffffffffffffffffffffffff168273ffffffffffffffffffffffffffffffffffffffff161415611040576040517f08c379a0000000000000000000000000000000000000000000000000000000008152600401611037906134c4565b60405180910390fd5b806005600061104d61168d565b73ffffffffffffffffffffffffffffffffffffffff1673ffffffffffffffffffffffffffffffffffffffff16815260200190815260200160002060008473ffffffffffffffffffffffffffffffffffffffff1673ffffffffffffffffffffffffffffffffffffffff16815260200190815260200160002060006101000a81548160ff0219169083151502179055508173ffffffffffffffffffffffffffffffffffffffff166110fa61168d565b73ffffffffffffffffffffffffffffffffffffffff167f17307eab39ab6107e8899845ad3d59bd9653f200f220920489ca2b5937696c318360405161113f91906133e7565b60405180910390a35050565b61115c61115661168d565b8361174e565b61119b576040517f08c379a0000000000000000000000000000000000000000000000000000000008152600401611192906136a4565b60405180910390fd5b6111a784848484611cee565b50505050565b60606111b882611621565b6111f7576040517f08c379a00000000000000000000000000000000000000000000000000000000081526004016111ee906135c4565b60405180910390fd5b6000600d6000848152602001908152602001600020805461121790613944565b80601f016020809104026020016040519081016040528092919081815260200182805461124390613944565b80156112905780601f1061126557610100808354040283529160200191611290565b820191906000526020600020905b81548152906001019060200180831161127357829003601f168201915b5050505050905060006112a1611d4a565b90506000815114156112b75781925050506112fa565b6000825111156112ec5780826040516020016112d492919061335c565b604051602081830303815290604052925050506112fa565b6112f584611d61565b925050505b919050565b6000600560008473ffffffffffffffffffffffffffffffffffffffff1673ffffffffffffffffffffffffffffffffffffffff16815260200190815260200160002060008373ffffffffffffffffffffffffffffffffffffffff1673ffffffffffffffffffffffffffffffffffffffff16815260200190815260200160002060009054906101000a900460ff16905092915050565b61139b61168d565b73ffffffffffffffffffffffffffffffffffffffff166113b9610f0e565b73ffffffffffffffffffffffffffffffffffffffff161461140f576040517f08c379a000000000000000000000000000000000000000000000000000000000815260040161140690613604565b60405180910390fd5b600073ffffffffffffffffffffffffffffffffffffffff168173ffffffffffffffffffffffffffffffffffffffff16141561147f576040517f08c379a000000000000000000000000000000000000000000000000000000000815260040161147690613464565b60405180910390fd5b8073ffffffffffffffffffffffffffffffffffffffff16600a60009054906101000a900473ffffffffffffffffffffffffffffffffffffffff1673ffffffffffffffffffffffffffffffffffffffff167f8be0079c531659141344cd1fd0a4f28419497f9722a3daafe3b4186f6b6457e060405160405180910390a380600a60006101000a81548173ffffffffffffffffffffffffffffffffffffffff021916908373ffffffffffffffffffffffffffffffffffffffff16021790555050565b60007f80ac58cd000000000000000000000000000000000000000000000000000000007bffffffffffffffffffffffffffffffffffffffffffffffffffffffff1916827bffffffffffffffffffffffffffffffffffffffffffffffffffffffff1916148061160a57507f5b5e139f000000000000000000000000000000000000000000000000000000007bffffffffffffffffffffffffffffffffffffffffffffffffffffffff1916827bffffffffffffffffffffffffffffffffffffffffffffffffffffffff1916145b8061161a575061161982611e08565b5b9050919050565b60008073ffffffffffffffffffffffffffffffffffffffff166002600084815260200190815260200160002060009054906101000a900473ffffffffffffffffffffffffffffffffffffffff1673ffffffffffffffffffffffffffffffffffffffff1614159050919050565b600033905090565b816004600083815260200190815260200160002060006101000a81548173ffffffffffffffffffffffffffffffffffffffff021916908373ffffffffffffffffffffffffffffffffffffffff160217905550808273ffffffffffffffffffffffffffffffffffffffff1661170883610ab6565b73ffffffffffffffffffffffffffffffffffffffff167f8c5be1e5ebec7d5bd14f71427d1e84f3dd0314c0f7b2291e5b200ac8c7c3b92560405160405180910390a45050565b600061175982611621565b611798576040517f08c379a000000000000000000000000000000000000000000000000000000000815260040161178f906134e4565b60405180910390fd5b60006117a383610ab6565b90508073ffffffffffffffffffffffffffffffffffffffff168473ffffffffffffffffffffffffffffffffffffffff16148061181257508373ffffffffffffffffffffffffffffffffffffffff166117fa8461067d565b73ffffffffffffffffffffffffffffffffffffffff16145b80611823575061182281856112ff565b5b91505092915050565b8273ffffffffffffffffffffffffffffffffffffffff1661184c82610ab6565b73ffffffffffffffffffffffffffffffffffffffff16146118a2576040517f08c379a000000000000000000000000000000000000000000000000000000000815260040161189990613624565b60405180910390fd5b600073ffffffffffffffffffffffffffffffffffffffff168273ffffffffffffffffffffffffffffffffffffffff161415611912576040517f08c379a0000000000000000000000000000000000000000000000000000000008152600401611909906134a4565b60405180910390fd5b61191d838383611e72565b611928600082611695565b6001600360008573ffffffffffffffffffffffffffffffffffffffff1673ffffffffffffffffffffffffffffffffffffffff1681526020019081526020016000206000828254611978919061385a565b925050819055506001600360008473ffffffffffffffffffffffffffffffffffffffff1673ffffffffffffffffffffffffffffffffffffffff16815260200190815260200160002060008282546119cf91906137d3565b92505081905550816002600083815260200190815260200160002060006101000a81548173ffffffffffffffffffffffffffffffffffffffff021916908373ffffffffffffffffffffffffffffffffffffffff160217905550808273ffffffffffffffffffffffffffffffffffffffff168473ffffffffffffffffffffffffffffffffffffffff167fddf252ad1be2c89b69c2b068fc378daa952ba7f163c4a11628f55a4df523b3ef60405160405180910390a4505050565b6001816000016000828254019250508190555050565b600081600001549050919050565b600073ffffffffffffffffffffffffffffffffffffffff168273ffffffffffffffffffffffffffffffffffffffff161415611b1c576040517f08c379a0000000000000000000000000000000000000000000000000000000008152600401611b13906135a4565b60405180910390fd5b611b2581611621565b15611b65576040517f08c379a0000000000000000000000000000000000000000000000000000000008152600401611b5c90613484565b60405180910390fd5b611b7160008383611e72565b6001600360008473ffffffffffffffffffffffffffffffffffffffff1673ffffffffffffffffffffffffffffffffffffffff1681526020019081526020016000206000828254611bc191906137d3565b92505081905550816002600083815260200190815260200160002060006101000a81548173ffffffffffffffffffffffffffffffffffffffff021916908373ffffffffffffffffffffffffffffffffffffffff160217905550808273ffffffffffffffffffffffffffffffffffffffff16600073ffffffffffffffffffffffffffffffffffffffff167fddf252ad1be2c89b69c2b068fc378daa952ba7f163c4a11628f55a4df523b3ef60405160405180910390a45050565b611c8382611621565b611cc2576040517f08c379a0000000000000000000000000000000000000000000000000000000008152600401611cb990613564565b60405180910390fd5b80600d60008481526020019081526020016000209080519060200190611ce992919061265a565b505050565b611cf984848461182c565b611d0584848484611f86565b611d44576040517f08c379a0000000000000000000000000000000000000000000000000000000008152600401611d3b90613444565b60405180910390fd5b50505050565b606060405180602001604052806000815250905090565b6060611d6c82611621565b611dab576040517f08c379a0000000000000000000000000000000000000000000000000000000008152600401611da290613644565b60405180910390fd5b6000611db5611d4a565b90506000815111611dd55760405180602001604052806000815250611e00565b80611ddf8461211d565b604051602001611df092919061335c565b6040516020818303038152906040525b915050919050565b60007f01ffc9a7000000000000000000000000000000000000000000000000000000007bffffffffffffffffffffffffffffffffffffffffffffffffffffffff1916827bffffffffffffffffffffffffffffffffffffffffffffffffffffffff1916149050919050565b611e7d8383836122ca565b600073ffffffffffffffffffffffffffffffffffffffff168373ffffffffffffffffffffffffffffffffffffffff161415611ec057611ebb816122cf565b611eff565b8173ffffffffffffffffffffffffffffffffffffffff168373ffffffffffffffffffffffffffffffffffffffff1614611efe57611efd8382612318565b5b5b600073ffffffffffffffffffffffffffffffffffffffff168273ffffffffffffffffffffffffffffffffffffffff161415611f4257611f3d81612485565b611f81565b8273ffffffffffffffffffffffffffffffffffffffff168273ffffffffffffffffffffffffffffffffffffffff1614611f8057611f7f82826125c8565b5b5b505050565b6000611fa78473ffffffffffffffffffffffffffffffffffffffff16612647565b15612110578373ffffffffffffffffffffffffffffffffffffffff1663150b7a02611fd061168d565b8786866040518563ffffffff1660e01b8152600401611ff2949392919061339b565b602060405180830381600087803b15801561200c57600080fd5b505af192505050801561203d57506040513d601f19601f8201168201806040525081019061203a9190612a06565b60015b6120c0573d806000811461206d576040519150601f19603f3d011682016040523d82523d6000602084013e612072565b606091505b506000815114156120b8576040517f08c379a00000000000000000000000000000000000000000000000000000000081526004016120af90613444565b60405180910390fd5b805181602001fd5b63150b7a0260e01b7bffffffffffffffffffffffffffffffffffffffffffffffffffffffff1916817bffffffffffffffffffffffffffffffffffffffffffffffffffffffff191614915050612115565b600190505b949350505050565b60606000821415612165576040518060400160405280600181526020017f300000000000000000000000000000000000000000000000000000000000000081525090506122c5565b600082905060005b6000821461219757808061218090613976565b915050600a826121909190613829565b915061216d565b60008167ffffffffffffffff8111156121d9577f4e487b7100000000000000000000000000000000000000000000000000000000600052604160045260246000fd5b6040519080825280601f01601f19166020018201604052801561220b5781602001600182028036833780820191505090505b5090505b600085146122be57600182612224919061385a565b9150600a8561223391906139bf565b603061223f91906137d3565b60f81b81838151811061227b577f4e487b7100000000000000000000000000000000000000000000000000000000600052603260045260246000fd5b60200101907effffffffffffffffffffffffffffffffffffffffffffffffffffffffffffff1916908160001a905350600a856122b79190613829565b945061220f565b8093505050505b919050565b505050565b6008805490506009600083815260200190815260200160002081905550600881908060018154018082558091505060019003906000526020600020016000909190919091505550565b6000600161232584610d01565b61232f919061385a565b9050600060076000848152602001908152602001600020549050818114612414576000600660008673ffffffffffffffffffffffffffffffffffffffff1673ffffffffffffffffffffffffffffffffffffffff168152602001908152602001600020600084815260200190815260200160002054905080600660008773ffffffffffffffffffffffffffffffffffffffff1673ffffffffffffffffffffffffffffffffffffffff168152602001908152602001600020600084815260200190815260200160002081905550816007600083815260200190815260200160002081905550505b6007600084815260200190815260200160002060009055600660008573ffffffffffffffffffffffffffffffffffffffff1673ffffffffffffffffffffffffffffffffffffffff16815260200190815260200160002060008381526020019081526020016000206000905550505050565b60006001600880549050612499919061385a565b90506000600960008481526020019081526020016000205490506000600883815481106124ef577f4e487b7100000000000000000000000000000000000000000000000000000000600052603260045260246000fd5b906000526020600020015490508060088381548110612537577f4e487b7100000000000000000000000000000000000000000000000000000000600052603260045260246000fd5b9060005260206000200181905550816009600083815260200190815260200160002081905550600960008581526020019081526020016000206000905560088054806125ac577f4e487b7100000000000000000000000000000000000000000000000000000000600052603160045260246000fd5b6001900381819060005260206000200160009055905550505050565b60006125d383610d01565b905081600660008573ffffffffffffffffffffffffffffffffffffffff1673ffffffffffffffffffffffffffffffffffffffff168152602001908152602001600020600083815260200190815260200160002081905550806007600084815260200190815260200160002081905550505050565b600080823b905060008111915050919050565b82805461266690613944565b90600052602060002090601f01602090048101928261268857600085556126cf565b82601f106126a157805160ff19168380011785556126cf565b828001600101855582156126cf579182015b828111156126ce5782518255916020019190600101906126b3565b5b5090506126dc91906126e0565b5090565b5b808211156126f95760008160009055506001016126e1565b5090565b600061271061270b84613730565b6136ff565b90508281526020810184848401111561272857600080fd5b612733848285613902565b509392505050565b600061274e61274984613760565b6136ff565b90508281526020810184848401111561276657600080fd5b612771848285613902565b509392505050565b60008135905061278881613abd565b92915050565b60008135905061279d81613ad4565b92915050565b6000813590506127b281613aeb565b92915050565b6000815190506127c781613aeb565b92915050565b600082601f8301126127de57600080fd5b81356127ee8482602086016126fd565b91505092915050565b600082601f83011261280857600080fd5b813561281884826020860161273b565b91505092915050565b60008135905061283081613b02565b92915050565b60006020828403121561284857600080fd5b600061285684828501612779565b91505092915050565b6000806040838503121561287257600080fd5b600061288085828601612779565b925050602061289185828601612779565b9150509250929050565b6000806000606084860312156128b057600080fd5b60006128be86828701612779565b93505060206128cf86828701612779565b92505060406128e086828701612821565b9150509250925092565b6000806000806080858703121561290057600080fd5b600061290e87828801612779565b945050602061291f87828801612779565b935050604061293087828801612821565b925050606085013567ffffffffffffffff81111561294d57600080fd5b612959878288016127cd565b91505092959194509250565b6000806040838503121561297857600080fd5b600061298685828601612779565b92505060206129978582860161278e565b9150509250929050565b600080604083850312156129b457600080fd5b60006129c285828601612779565b92505060206129d385828601612821565b9150509250929050565b6000602082840312156129ef57600080fd5b60006129fd848285016127a3565b91505092915050565b600060208284031215612a1857600080fd5b6000612a26848285016127b8565b91505092915050565b60008060408385031215612a4257600080fd5b600083013567ffffffffffffffff811115612a5c57600080fd5b612a68858286016127f7565b9250506020612a7985828601612821565b9150509250929050565b600060208284031215612a9557600080fd5b6000612aa384828501612821565b91505092915050565b612ab58161388e565b82525050565b612ac4816138a0565b82525050565b6000612ad582613790565b612adf81856137a6565b9350612aef818560208601613911565b612af881613aac565b840191505092915050565b6000612b0e8261379b565b612b1881856137b7565b9350612b28818560208601613911565b612b3181613aac565b840191505092915050565b6000612b478261379b565b612b5181856137c8565b9350612b61818560208601613911565b80840191505092915050565b6000612b7a602b836137b7565b91507f455243373231456e756d657261626c653a206f776e657220696e646578206f7560008301527f74206f6620626f756e64730000000000000000000000000000000000000000006020830152604082019050919050565b6000612be06032836137b7565b91507f4552433732313a207472616e7366657220746f206e6f6e20455243373231526560008301527f63656976657220696d706c656d656e74657200000000000000000000000000006020830152604082019050919050565b6000612c466026836137b7565b91507f4f776e61626c653a206e6577206f776e657220697320746865207a65726f206160008301527f64647265737300000000000000000000000000000000000000000000000000006020830152604082019050919050565b6000612cac601c836137b7565b91507f4552433732313a20746f6b656e20616c7265616479206d696e746564000000006000830152602082019050919050565b6000612cec6024836137b7565b91507f4552433732313a207472616e7366657220746f20746865207a65726f2061646460008301527f72657373000000000000000000000000000000000000000000000000000000006020830152604082019050919050565b6000612d526019836137b7565b91507f4552433732313a20617070726f766520746f2063616c6c6572000000000000006000830152602082019050919050565b6000612d92602c836137b7565b91507f4552433732313a206f70657261746f7220717565727920666f72206e6f6e657860008301527f697374656e7420746f6b656e00000000000000000000000000000000000000006020830152604082019050919050565b6000612df86038836137b7565b91507f4552433732313a20617070726f76652063616c6c6572206973206e6f74206f7760008301527f6e6572206e6f7220617070726f76656420666f7220616c6c00000000000000006020830152604082019050919050565b6000612e5e602a836137b7565b91507f4552433732313a2062616c616e636520717565727920666f7220746865207a6560008301527f726f2061646472657373000000000000000000000000000000000000000000006020830152604082019050919050565b6000612ec46029836137b7565b91507f4552433732313a206f776e657220717565727920666f72206e6f6e657869737460008301527f656e7420746f6b656e00000000000000000000000000000000000000000000006020830152604082019050919050565b6000612f2a602e836137b7565b91507f45524337323155524953746f726167653a2055524920736574206f66206e6f6e60008301527f6578697374656e7420746f6b656e0000000000000000000000000000000000006020830152604082019050919050565b6000612f90601b836137b7565b91507f796f7520616c726561647920626f7567687420746869732070657400000000006000830152602082019050919050565b6000612fd06020836137b7565b91507f4552433732313a206d696e7420746f20746865207a65726f20616464726573736000830152602082019050919050565b60006130106031836137b7565b91507f45524337323155524953746f726167653a2055524920717565727920666f722060008301527f6e6f6e6578697374656e7420746f6b656e0000000000000000000000000000006020830152604082019050919050565b6000613076602c836137b7565b91507f4552433732313a20617070726f76656420717565727920666f72206e6f6e657860008301527f697374656e7420746f6b656e00000000000000000000000000000000000000006020830152604082019050919050565b60006130dc6020836137b7565b91507f4f776e61626c653a2063616c6c6572206973206e6f7420746865206f776e65726000830152602082019050919050565b600061311c6029836137b7565b91507f4552433732313a207472616e73666572206f6620746f6b656e2074686174206960008301527f73206e6f74206f776e00000000000000000000000000000000000000000000006020830152604082019050919050565b6000613182602f836137b7565b91507f4552433732314d657461646174613a2055524920717565727920666f72206e6f60008301527f6e6578697374656e7420746f6b656e00000000000000000000000000000000006020830152604082019050919050565b60006131e8601d836137b7565b91507f596f75206e65656420746f206861766520656e6f7567682045746865720000006000830152602082019050919050565b60006132286021836137b7565b91507f4552433732313a20617070726f76616c20746f2063757272656e74206f776e6560008301527f72000000000000000000000000000000000000000000000000000000000000006020830152604082019050919050565b600061328e6031836137b7565b91507f4552433732313a207472616e736665722063616c6c6572206973206e6f74206f60008301527f776e6572206e6f7220617070726f7665640000000000000000000000000000006020830152604082019050919050565b60006132f4602c836137b7565b91507f455243373231456e756d657261626c653a20676c6f62616c20696e646578206f60008301527f7574206f6620626f756e647300000000000000000000000000000000000000006020830152604082019050919050565b613356816138f8565b82525050565b60006133688285612b3c565b91506133748284612b3c565b91508190509392505050565b60006020820190506133956000830184612aac565b92915050565b60006080820190506133b06000830187612aac565b6133bd6020830186612aac565b6133ca604083018561334d565b81810360608301526133dc8184612aca565b905095945050505050565b60006020820190506133fc6000830184612abb565b92915050565b6000602082019050818103600083015261341c8184612b03565b905092915050565b6000602082019050818103600083015261343d81612b6d565b9050919050565b6000602082019050818103600083015261345d81612bd3565b9050919050565b6000602082019050818103600083015261347d81612c39565b9050919050565b6000602082019050818103600083015261349d81612c9f565b9050919050565b600060208201905081810360008301526134bd81612cdf565b9050919050565b600060208201905081810360008301526134dd81612d45565b9050919050565b600060208201905081810360008301526134fd81612d85565b9050919050565b6000602082019050818103600083015261351d81612deb565b9050919050565b6000602082019050818103600083015261353d81612e51565b9050919050565b6000602082019050818103600083015261355d81612eb7565b9050919050565b6000602082019050818103600083015261357d81612f1d565b9050919050565b6000602082019050818103600083015261359d81612f83565b9050919050565b600060208201905081810360008301526135bd81612fc3565b9050919050565b600060208201905081810360008301526135dd81613003565b9050919050565b600060208201905081810360008301526135fd81613069565b9050919050565b6000602082019050818103600083015261361d816130cf565b9050919050565b6000602082019050818103600083015261363d8161310f565b9050919050565b6000602082019050818103600083015261365d81613175565b9050919050565b6000602082019050818103600083015261367d816131db565b9050919050565b6000602082019050818103600083015261369d8161321b565b9050919050565b600060208201905081810360008301526136bd81613281565b9050919050565b600060208201905081810360008301526136dd816132e7565b9050919050565b60006020820190506136f9600083018461334d565b92915050565b6000604051905081810181811067ffffffffffffffff8211171561372657613725613a7d565b5b8060405250919050565b600067ffffffffffffffff82111561374b5761374a613a7d565b5b601f19601f8301169050602081019050919050565b600067ffffffffffffffff82111561377b5761377a613a7d565b5b601f19601f8301169050602081019050919050565b600081519050919050565b600081519050919050565b600082825260208201905092915050565b600082825260208201905092915050565b600081905092915050565b60006137de826138f8565b91506137e9836138f8565b9250827fffffffffffffffffffffffffffffffffffffffffffffffffffffffffffffffff0382111561381e5761381d6139f0565b5b828201905092915050565b6000613834826138f8565b915061383f836138f8565b92508261384f5761384e613a1f565b5b828204905092915050565b6000613865826138f8565b9150613870836138f8565b925082821015613883576138826139f0565b5b828203905092915050565b6000613899826138d8565b9050919050565b60008115159050919050565b60007fffffffff0000000000000000000000000000000000000000000000000000000082169050919050565b600073ffffffffffffffffffffffffffffffffffffffff82169050919050565b6000819050919050565b82818337600083830152505050565b60005b8381101561392f578082015181840152602081019050613914565b8381111561393e576000848401525b50505050565b6000600282049050600182168061395c57607f821691505b602082108114156139705761396f613a4e565b5b50919050565b6000613981826138f8565b91507fffffffffffffffffffffffffffffffffffffffffffffffffffffffffffffffff8214156139b4576139b36139f0565b5b600182019050919050565b60006139ca826138f8565b91506139d5836138f8565b9250826139e5576139e4613a1f565b5b828206905092915050565b7f4e487b7100000000000000000000000000000000000000000000000000000000600052601160045260246000fd5b7f4e487b7100000000000000000000000000000000000000000000000000000000600052601260045260246000fd5b7f4e487b7100000000000000000000000000000000000000000000000000000000600052602260045260246000fd5b7f4e487b7100000000000000000000000000000000000000000000000000000000600052604160045260246000fd5b6000601f19601f8301169050919050565b613ac68161388e565b8114613ad157600080fd5b50565b613add816138a0565b8114613ae857600080fd5b50565b613af4816138ac565b8114613aff57600080fd5b50565b613b0b816138f8565b8114613b1657600080fd5b5056fea2646970667358221220675ab2c3f80dad8c22571b4529ea1c36624fc82f8b576cf764b6fdebce768e0564736f6c63430008000033",
  "immutableReferences": {},
  "source": "// SPDX-License-Identifier: MIT\npragma solidity ^0.8.0;\n\nimport \"@openzeppelin/contracts/token/ERC721/extensions/ERC721Enumerable.sol\";\nimport \"@openzeppelin/contracts/utils/Counters.sol\";\nimport \"@openzeppelin/contracts/access/Ownable.sol\";\n\ncontract PetShop is ERC721Enumerable, Ownable {\n    \n    using Counters for Counters.Counter;\n    Counters.Counter private _tokenIds;\n    \n    using Strings for uint256;\n    \n    // mapping the TokenId and price\n    mapping(uint256 => uint256) public petsForSale;\n\n    // Optional mapping for token URIs\n    mapping (uint256 => string) private _tokenURIs;\n\n    constructor() ERC721(\"PetShopNFT\", \"PNFT\") {}\n\n    function tokenURI(uint256 tokenId) public view virtual override returns (string memory) {\n        require(_exists(tokenId), \"ERC721URIStorage: URI query for nonexistent token\");\n\n        string memory _tokenURI = _tokenURIs[tokenId];\n        string memory base = _baseURI();\n\n        // If there is no base URI, return the token URI.\n        if (bytes(base).length == 0) {\n            return _tokenURI;\n        }\n        // If both are set, concatenate the baseURI and tokenURI (via abi.encodePacked).\n        if (bytes(_tokenURI).length > 0) {\n            return string(abi.encodePacked(base, _tokenURI));\n        }\n\n        return super.tokenURI(tokenId);\n    }\n\n    /**\n     * @dev Sets `_tokenURI` as the tokenURI of `tokenId`.\n     *\n     * Requirements:\n     *\n     * - `tokenId` must exist.\n     */\n    function _setTokenURI(uint256 tokenId, string memory _tokenURI) internal virtual {\n        require(_exists(tokenId), \"ERC721URIStorage: URI set of nonexistent token\");\n        _tokenURIs[tokenId] = _tokenURI;\n    }\n\n    function mintPetNft(string memory _tokenURI,uint256 _price)\n        external\n        onlyOwner\n        returns (uint256)\n    {\n        _tokenIds.increment();\n        uint256 newItemId = _tokenIds.current();\n        \n        // _beforeTokenTransfer(address(0),owner(),newItemId);\n        _mint(owner(), newItemId);\n        petsForSale[newItemId] = _price;\n        _setTokenURI(newItemId, _tokenURI);\n\n        return newItemId;\n    }\n\n    function buyPetNft(uint256 _tokenId) public payable {\n        address ownerAddress = ownerOf(_tokenId);\n        require(msg.sender != ownerAddress,\"you already bought this pet\");\n        uint256 petCost = petsForSale[_tokenId];\n        require(msg.value >= petCost, \"You need to have enough Ether\");\n        // _beforeTokenTransfer(ownerAddress,msg.sender,_tokenId);\n        _safeTransfer(ownerAddress, msg.sender, _tokenId, \"\");\n         payable(ownerAddress).transfer(petCost);\n        if (msg.value > petCost) {\n            payable(msg.sender).transfer(msg.value - petCost);\n        }\n    }\n}\n",
  "sourcePath": "/home/asadullah/pet-shop/contracts/PetShop.sol",
  "compiler": {
    "name": "solc",
    "version": "0.8.0+commit.c7dfd78e.Emscripten.clang"
  },
  "schemaVersion": "3.2.0",
  "updatedAt": "2021-04-12T22:10:28.817Z",
  "networkType": "ethereum",
  "devdoc": {
    "kind": "dev",
    "methods": {
      "approve(address,uint256)": {
        "details": "See {IERC721-approve}."
      },
      "balanceOf(address)": {
        "details": "See {IERC721-balanceOf}."
      },
      "getApproved(uint256)": {
        "details": "See {IERC721-getApproved}."
      },
      "isApprovedForAll(address,address)": {
        "details": "See {IERC721-isApprovedForAll}."
      },
      "name()": {
        "details": "See {IERC721Metadata-name}."
      },
      "owner()": {
        "details": "Returns the address of the current owner."
      },
      "ownerOf(uint256)": {
        "details": "See {IERC721-ownerOf}."
      },
      "renounceOwnership()": {
        "details": "Leaves the contract without owner. It will not be possible to call `onlyOwner` functions anymore. Can only be called by the current owner. NOTE: Renouncing ownership will leave the contract without an owner, thereby removing any functionality that is only available to the owner."
      },
      "safeTransferFrom(address,address,uint256)": {
        "details": "See {IERC721-safeTransferFrom}."
      },
      "safeTransferFrom(address,address,uint256,bytes)": {
        "details": "See {IERC721-safeTransferFrom}."
      },
      "setApprovalForAll(address,bool)": {
        "details": "See {IERC721-setApprovalForAll}."
      },
      "supportsInterface(bytes4)": {
        "details": "See {IERC165-supportsInterface}."
      },
      "symbol()": {
        "details": "See {IERC721Metadata-symbol}."
      },
      "tokenByIndex(uint256)": {
        "details": "See {IERC721Enumerable-tokenByIndex}."
      },
      "tokenOfOwnerByIndex(address,uint256)": {
        "details": "See {IERC721Enumerable-tokenOfOwnerByIndex}."
      },
      "tokenURI(uint256)": {
        "details": "See {IERC721Metadata-tokenURI}."
      },
      "totalSupply()": {
        "details": "See {IERC721Enumerable-totalSupply}."
      },
      "transferFrom(address,address,uint256)": {
        "details": "See {IERC721-transferFrom}."
      },
      "transferOwnership(address)": {
        "details": "Transfers ownership of the contract to a new account (`newOwner`). Can only be called by the current owner."
      }
    },
    "version": 1
  },
  "userdoc": {
    "kind": "user",
    "methods": {},
    "version": 1
  }
}