{
  "contractName": "PetShop",
  "abi": [
    {
      "inputs": [],
      "stateMutability": "nonpayable",
      "type": "constructor"
    },
    {
      "anonymous": false,
      "inputs": [
        {
          "indexed": true,
          "internalType": "address",
          "name": "owner",
          "type": "address"
        },
        {
          "indexed": true,
          "internalType": "address",
          "name": "approved",
          "type": "address"
        },
        {
          "indexed": true,
          "internalType": "uint256",
          "name": "tokenId",
          "type": "uint256"
        }
      ],
      "name": "Approval",
      "type": "event"
    },
    {
      "anonymous": false,
      "inputs": [
        {
          "indexed": true,
          "internalType": "address",
          "name": "owner",
          "type": "address"
        },
        {
          "indexed": true,
          "internalType": "address",
          "name": "operator",
          "type": "address"
        },
        {
          "indexed": false,
          "internalType": "bool",
          "name": "approved",
          "type": "bool"
        }
      ],
      "name": "ApprovalForAll",
      "type": "event"
    },
    {
      "anonymous": false,
      "inputs": [
        {
          "indexed": true,
          "internalType": "address",
          "name": "previousOwner",
          "type": "address"
        },
        {
          "indexed": true,
          "internalType": "address",
          "name": "newOwner",
          "type": "address"
        }
      ],
      "name": "OwnershipTransferred",
      "type": "event"
    },
    {
      "anonymous": false,
      "inputs": [
        {
          "indexed": true,
          "internalType": "uint256",
          "name": "tokenId",
          "type": "uint256"
        },
        {
          "indexed": false,
          "internalType": "address",
          "name": "oldOwner",
          "type": "address"
        },
        {
          "indexed": false,
          "internalType": "address",
          "name": "newOwner",
          "type": "address"
        },
        {
          "indexed": false,
          "internalType": "uint256",
          "name": "price",
          "type": "uint256"
        },
        {
          "indexed": false,
          "internalType": "uint256",
          "name": "date",
          "type": "uint256"
        }
      ],
      "name": "PetTransfer",
      "type": "event"
    },
    {
      "anonymous": false,
      "inputs": [
        {
          "indexed": true,
          "internalType": "address",
          "name": "from",
          "type": "address"
        },
        {
          "indexed": true,
          "internalType": "address",
          "name": "to",
          "type": "address"
        },
        {
          "indexed": true,
          "internalType": "uint256",
          "name": "tokenId",
          "type": "uint256"
        }
      ],
      "name": "Transfer",
      "type": "event"
    },
    {
      "inputs": [
        {
          "internalType": "address",
          "name": "to",
          "type": "address"
        },
        {
          "internalType": "uint256",
          "name": "tokenId",
          "type": "uint256"
        }
      ],
      "name": "approve",
      "outputs": [],
      "stateMutability": "nonpayable",
      "type": "function"
    },
    {
      "inputs": [
        {
          "internalType": "address",
          "name": "owner",
          "type": "address"
        }
      ],
      "name": "balanceOf",
      "outputs": [
        {
          "internalType": "uint256",
          "name": "",
          "type": "uint256"
        }
      ],
      "stateMutability": "view",
      "type": "function",
      "constant": true
    },
    {
      "inputs": [
        {
          "internalType": "uint256",
          "name": "tokenId",
          "type": "uint256"
        }
      ],
      "name": "getApproved",
      "outputs": [
        {
          "internalType": "address",
          "name": "",
          "type": "address"
        }
      ],
      "stateMutability": "view",
      "type": "function",
      "constant": true
    },
    {
      "inputs": [
        {
          "internalType": "address",
          "name": "owner",
          "type": "address"
        },
        {
          "internalType": "address",
          "name": "operator",
          "type": "address"
        }
      ],
      "name": "isApprovedForAll",
      "outputs": [
        {
          "internalType": "bool",
          "name": "",
          "type": "bool"
        }
      ],
      "stateMutability": "view",
      "type": "function",
      "constant": true
    },
    {
      "inputs": [],
      "name": "name",
      "outputs": [
        {
          "internalType": "string",
          "name": "",
          "type": "string"
        }
      ],
      "stateMutability": "view",
      "type": "function",
      "constant": true
    },
    {
      "inputs": [],
      "name": "owner",
      "outputs": [
        {
          "internalType": "address",
          "name": "",
          "type": "address"
        }
      ],
      "stateMutability": "view",
      "type": "function",
      "constant": true
    },
    {
      "inputs": [
        {
          "internalType": "uint256",
          "name": "tokenId",
          "type": "uint256"
        }
      ],
      "name": "ownerOf",
      "outputs": [
        {
          "internalType": "address",
          "name": "",
          "type": "address"
        }
      ],
      "stateMutability": "view",
      "type": "function",
      "constant": true
    },
    {
      "inputs": [
        {
          "internalType": "uint256",
          "name": "",
          "type": "uint256"
        }
      ],
      "name": "petsPrice",
      "outputs": [
        {
          "internalType": "uint256",
          "name": "",
          "type": "uint256"
        }
      ],
      "stateMutability": "view",
      "type": "function",
      "constant": true
    },
    {
      "inputs": [],
      "name": "renounceOwnership",
      "outputs": [],
      "stateMutability": "nonpayable",
      "type": "function"
    },
    {
      "inputs": [
        {
          "internalType": "address",
          "name": "from",
          "type": "address"
        },
        {
          "internalType": "address",
          "name": "to",
          "type": "address"
        },
        {
          "internalType": "uint256",
          "name": "tokenId",
          "type": "uint256"
        }
      ],
      "name": "safeTransferFrom",
      "outputs": [],
      "stateMutability": "nonpayable",
      "type": "function"
    },
    {
      "inputs": [
        {
          "internalType": "address",
          "name": "from",
          "type": "address"
        },
        {
          "internalType": "address",
          "name": "to",
          "type": "address"
        },
        {
          "internalType": "uint256",
          "name": "tokenId",
          "type": "uint256"
        },
        {
          "internalType": "bytes",
          "name": "_data",
          "type": "bytes"
        }
      ],
      "name": "safeTransferFrom",
      "outputs": [],
      "stateMutability": "nonpayable",
      "type": "function"
    },
    {
      "inputs": [
        {
          "internalType": "address",
          "name": "operator",
          "type": "address"
        },
        {
          "internalType": "bool",
          "name": "approved",
          "type": "bool"
        }
      ],
      "name": "setApprovalForAll",
      "outputs": [],
      "stateMutability": "nonpayable",
      "type": "function"
    },
    {
      "inputs": [
        {
          "internalType": "bytes4",
          "name": "interfaceId",
          "type": "bytes4"
        }
      ],
      "name": "supportsInterface",
      "outputs": [
        {
          "internalType": "bool",
          "name": "",
          "type": "bool"
        }
      ],
      "stateMutability": "view",
      "type": "function",
      "constant": true
    },
    {
      "inputs": [],
      "name": "symbol",
      "outputs": [
        {
          "internalType": "string",
          "name": "",
          "type": "string"
        }
      ],
      "stateMutability": "view",
      "type": "function",
      "constant": true
    },
    {
      "inputs": [
        {
          "internalType": "uint256",
          "name": "index",
          "type": "uint256"
        }
      ],
      "name": "tokenByIndex",
      "outputs": [
        {
          "internalType": "uint256",
          "name": "",
          "type": "uint256"
        }
      ],
      "stateMutability": "view",
      "type": "function",
      "constant": true
    },
    {
      "inputs": [
        {
          "internalType": "address",
          "name": "owner",
          "type": "address"
        },
        {
          "internalType": "uint256",
          "name": "index",
          "type": "uint256"
        }
      ],
      "name": "tokenOfOwnerByIndex",
      "outputs": [
        {
          "internalType": "uint256",
          "name": "",
          "type": "uint256"
        }
      ],
      "stateMutability": "view",
      "type": "function",
      "constant": true
    },
    {
      "inputs": [],
      "name": "totalSupply",
      "outputs": [
        {
          "internalType": "uint256",
          "name": "",
          "type": "uint256"
        }
      ],
      "stateMutability": "view",
      "type": "function",
      "constant": true
    },
    {
      "inputs": [
        {
          "internalType": "address",
          "name": "from",
          "type": "address"
        },
        {
          "internalType": "address",
          "name": "to",
          "type": "address"
        },
        {
          "internalType": "uint256",
          "name": "tokenId",
          "type": "uint256"
        }
      ],
      "name": "transferFrom",
      "outputs": [],
      "stateMutability": "nonpayable",
      "type": "function"
    },
    {
      "inputs": [
        {
          "internalType": "address",
          "name": "newOwner",
          "type": "address"
        }
      ],
      "name": "transferOwnership",
      "outputs": [],
      "stateMutability": "nonpayable",
      "type": "function"
    },
    {
      "inputs": [
        {
          "internalType": "uint256",
          "name": "tokenId",
          "type": "uint256"
        }
      ],
      "name": "tokenURI",
      "outputs": [
        {
          "internalType": "string",
          "name": "",
          "type": "string"
        }
      ],
      "stateMutability": "view",
      "type": "function",
      "constant": true
    },
    {
      "inputs": [
        {
          "internalType": "string",
          "name": "_tokenURI",
          "type": "string"
        },
        {
          "internalType": "uint256",
          "name": "_price",
          "type": "uint256"
        }
      ],
      "name": "mintPetNft",
      "outputs": [
        {
          "internalType": "uint256",
          "name": "",
          "type": "uint256"
        }
      ],
      "stateMutability": "nonpayable",
      "type": "function"
    },
    {
      "inputs": [
        {
          "internalType": "uint256",
          "name": "_tokenId",
          "type": "uint256"
        }
      ],
      "name": "buyPetNft",
      "outputs": [
        {
          "internalType": "bool",
          "name": "",
          "type": "bool"
        }
      ],
      "stateMutability": "payable",
      "type": "function",
      "payable": true
    }
  ],
  "bytecode": "0x60806040523480156200001157600080fd5b506040518060400160405280600a81526020017f50657453686f704e4654000000000000000000000000000000000000000000008152506040518060400160405280600481526020017f504e46540000000000000000000000000000000000000000000000000000000081525081600090805190602001906200009692919062000171565b508060019080519060200190620000af92919062000171565b5050506000620000c46200016960201b60201c565b905080600a60006101000a81548173ffffffffffffffffffffffffffffffffffffffff021916908373ffffffffffffffffffffffffffffffffffffffff1602179055508073ffffffffffffffffffffffffffffffffffffffff16600073ffffffffffffffffffffffffffffffffffffffff167f8be0079c531659141344cd1fd0a4f28419497f9722a3daafe3b4186f6b6457e060405160405180910390a35062000286565b600033905090565b8280546200017f9062000221565b90600052602060002090601f016020900481019282620001a35760008555620001ef565b82601f10620001be57805160ff1916838001178555620001ef565b82800160010185558215620001ef579182015b82811115620001ee578251825591602001919060010190620001d1565b5b509050620001fe919062000202565b5090565b5b808211156200021d57600081600090555060010162000203565b5090565b600060028204905060018216806200023a57607f821691505b6020821081141562000251576200025062000257565b5b50919050565b7f4e487b7100000000000000000000000000000000000000000000000000000000600052602260045260246000fd5b613d6180620002966000396000f3fe6080604052600436106101355760003560e01c80636da4ae2f116100ab578063a22cb4651161006f578063a22cb46514610453578063a756e1951461047c578063b88d4fde146104b9578063c87b56dd146104e2578063e985e9c51461051f578063f2fde38b1461055c57610135565b80636da4ae2f1461037957806370a08231146103a9578063715018a6146103e65780638da5cb5b146103fd57806395d89b411461042857610135565b806323b872dd116100fd57806323b872dd146102335780632aba97d01461025c5780632f745c591461029957806342842e0e146102d65780634f6ccce7146102ff5780636352211e1461033c57610135565b806301ffc9a71461013a57806306fdde0314610177578063081812fc146101a2578063095ea7b3146101df57806318160ddd14610208575b600080fd5b34801561014657600080fd5b50610161600480360381019061015c9190612afe565b610585565b60405161016e91906135d9565b60405180910390f35b34801561018357600080fd5b5061018c6105ff565b60405161019991906135f4565b60405180910390f35b3480156101ae57600080fd5b506101c960048036038101906101c49190612ba4565b610691565b6040516101d6919061352d565b60405180910390f35b3480156101eb57600080fd5b5061020660048036038101906102019190612ac2565b610716565b005b34801561021457600080fd5b5061021d61082e565b60405161022a91906138f6565b60405180910390f35b34801561023f57600080fd5b5061025a600480360381019061025591906129bc565b61083b565b005b34801561026857600080fd5b50610283600480360381019061027e9190612b50565b61089b565b60405161029091906138f6565b60405180910390f35b3480156102a557600080fd5b506102c060048036038101906102bb9190612ac2565b61092a565b6040516102cd91906138f6565b60405180910390f35b3480156102e257600080fd5b506102fd60048036038101906102f891906129bc565b6109cf565b005b34801561030b57600080fd5b5061032660048036038101906103219190612ba4565b6109ef565b60405161033391906138f6565b60405180910390f35b34801561034857600080fd5b50610363600480360381019061035e9190612ba4565b610a86565b604051610370919061352d565b60405180910390f35b610393600480360381019061038e9190612ba4565b610b38565b6040516103a091906135d9565b60405180910390f35b3480156103b557600080fd5b506103d060048036038101906103cb9190612957565b610da9565b6040516103dd91906138f6565b60405180910390f35b3480156103f257600080fd5b506103fb610e61565b005b34801561040957600080fd5b50610412610f9e565b60405161041f919061352d565b60405180910390f35b34801561043457600080fd5b5061043d610fc8565b60405161044a91906135f4565b60405180910390f35b34801561045f57600080fd5b5061047a60048036038101906104759190612a86565b61105a565b005b34801561048857600080fd5b506104a3600480360381019061049e9190612ba4565b6111db565b6040516104b091906138f6565b60405180910390f35b3480156104c557600080fd5b506104e060048036038101906104db9190612a0b565b6111f3565b005b3480156104ee57600080fd5b5061050960048036038101906105049190612ba4565b611255565b60405161051691906135f4565b60405180910390f35b34801561052b57600080fd5b5061054660048036038101906105419190612980565b6113a7565b60405161055391906135d9565b60405180910390f35b34801561056857600080fd5b50610583600480360381019061057e9190612957565b61143b565b005b60007f780e9d63000000000000000000000000000000000000000000000000000000007bffffffffffffffffffffffffffffffffffffffffffffffffffffffff1916827bffffffffffffffffffffffffffffffffffffffffffffffffffffffff191614806105f857506105f7826115e7565b5b9050919050565b60606000805461060e90613b56565b80601f016020809104026020016040519081016040528092919081815260200182805461063a90613b56565b80156106875780601f1061065c57610100808354040283529160200191610687565b820191906000526020600020905b81548152906001019060200180831161066a57829003601f168201915b5050505050905090565b600061069c826116c9565b6106db576040517f08c379a00000000000000000000000000000000000000000000000000000000081526004016106d2906137f6565b60405180910390fd5b6004600083815260200190815260200160002060009054906101000a900473ffffffffffffffffffffffffffffffffffffffff169050919050565b600061072182610a86565b90508073ffffffffffffffffffffffffffffffffffffffff168373ffffffffffffffffffffffffffffffffffffffff161415610792576040517f08c379a000000000000000000000000000000000000000000000000000000000815260040161078990613876565b60405180910390fd5b8073ffffffffffffffffffffffffffffffffffffffff166107b1611735565b73ffffffffffffffffffffffffffffffffffffffff1614806107e057506107df816107da611735565b6113a7565b5b61081f576040517f08c379a000000000000000000000000000000000000000000000000000000000815260040161081690613716565b60405180910390fd5b610829838361173d565b505050565b6000600880549050905090565b61084c610846611735565b826117f6565b61088b576040517f08c379a0000000000000000000000000000000000000000000000000000000008152600401610882906138b6565b60405180910390fd5b6108968383836118d4565b505050565b60006108a7600b611b30565b60006108b3600b611b46565b90506108bf3382611b54565b82600c6000838152602001908152602001600020819055506108e18185611b72565b807f4e3628cd4f328668f389852c8e235cb0159256d92e6da822a163de78bfcf556260003386426040516109189493929190613594565b60405180910390a28091505092915050565b600061093583610da9565b8210610976576040517f08c379a000000000000000000000000000000000000000000000000000000000815260040161096d90613616565b60405180910390fd5b600660008473ffffffffffffffffffffffffffffffffffffffff1673ffffffffffffffffffffffffffffffffffffffff168152602001908152602001600020600083815260200190815260200160002054905092915050565b6109ea838383604051806020016040528060008152506111f3565b505050565b60006109f961082e565b8210610a3a576040517f08c379a0000000000000000000000000000000000000000000000000000000008152600401610a31906138d6565b60405180910390fd5b60088281548110610a74577f4e487b7100000000000000000000000000000000000000000000000000000000600052603260045260246000fd5b90600052602060002001549050919050565b6000806002600084815260200190815260200160002060009054906101000a900473ffffffffffffffffffffffffffffffffffffffff169050600073ffffffffffffffffffffffffffffffffffffffff168173ffffffffffffffffffffffffffffffffffffffff161415610b2f576040517f08c379a0000000000000000000000000000000000000000000000000000000008152600401610b2690613756565b60405180910390fd5b80915050919050565b60008082118015610b4e5750610b4d826116c9565b5b610b8d576040517f08c379a0000000000000000000000000000000000000000000000000000000008152600401610b84906137d6565b60405180910390fd5b6000610b9883610a86565b90508073ffffffffffffffffffffffffffffffffffffffff163373ffffffffffffffffffffffffffffffffffffffff1614158015610c095750610bd9610f9e565b73ffffffffffffffffffffffffffffffffffffffff163373ffffffffffffffffffffffffffffffffffffffff1614155b610c48576040517f08c379a0000000000000000000000000000000000000000000000000000000008152600401610c3f90613896565b60405180910390fd5b6000600c600085815260200190815260200160002054905080341015610ca3576040517f08c379a0000000000000000000000000000000000000000000000000000000008152600401610c9a906136d6565b60405180910390fd5b610cbe82338660405180602001604052806000815250611be6565b8173ffffffffffffffffffffffffffffffffffffffff166108fc829081150290604051600060405180830381858888f19350505050158015610d04573d6000803e3d6000fd5b5080341115610d60573373ffffffffffffffffffffffffffffffffffffffff166108fc8234610d339190613a6c565b9081150290604051600060405180830381858888f19350505050158015610d5e573d6000803e3d6000fd5b505b837f4e3628cd4f328668f389852c8e235cb0159256d92e6da822a163de78bfcf556233843442604051610d969493929190613594565b60405180910390a2600192505050919050565b60008073ffffffffffffffffffffffffffffffffffffffff168273ffffffffffffffffffffffffffffffffffffffff161415610e1a576040517f08c379a0000000000000000000000000000000000000000000000000000000008152600401610e1190613736565b60405180910390fd5b600360008373ffffffffffffffffffffffffffffffffffffffff1673ffffffffffffffffffffffffffffffffffffffff168152602001908152602001600020549050919050565b610e69611735565b73ffffffffffffffffffffffffffffffffffffffff16610e87610f9e565b73ffffffffffffffffffffffffffffffffffffffff1614610edd576040517f08c379a0000000000000000000000000000000000000000000000000000000008152600401610ed490613816565b60405180910390fd5b600073ffffffffffffffffffffffffffffffffffffffff16600a60009054906101000a900473ffffffffffffffffffffffffffffffffffffffff1673ffffffffffffffffffffffffffffffffffffffff167f8be0079c531659141344cd1fd0a4f28419497f9722a3daafe3b4186f6b6457e060405160405180910390a36000600a60006101000a81548173ffffffffffffffffffffffffffffffffffffffff021916908373ffffffffffffffffffffffffffffffffffffffff160217905550565b6000600a60009054906101000a900473ffffffffffffffffffffffffffffffffffffffff16905090565b606060018054610fd790613b56565b80601f016020809104026020016040519081016040528092919081815260200182805461100390613b56565b80156110505780601f1061102557610100808354040283529160200191611050565b820191906000526020600020905b81548152906001019060200180831161103357829003601f168201915b5050505050905090565b611062611735565b73ffffffffffffffffffffffffffffffffffffffff168273ffffffffffffffffffffffffffffffffffffffff1614156110d0576040517f08c379a00000000000000000000000000000000000000000000000000000000081526004016110c7906136b6565b60405180910390fd5b80600560006110dd611735565b73ffffffffffffffffffffffffffffffffffffffff1673ffffffffffffffffffffffffffffffffffffffff16815260200190815260200160002060008473ffffffffffffffffffffffffffffffffffffffff1673ffffffffffffffffffffffffffffffffffffffff16815260200190815260200160002060006101000a81548160ff0219169083151502179055508173ffffffffffffffffffffffffffffffffffffffff1661118a611735565b73ffffffffffffffffffffffffffffffffffffffff167f17307eab39ab6107e8899845ad3d59bd9653f200f220920489ca2b5937696c31836040516111cf91906135d9565b60405180910390a35050565b600c6020528060005260406000206000915090505481565b6112046111fe611735565b836117f6565b611243576040517f08c379a000000000000000000000000000000000000000000000000000000000815260040161123a906138b6565b60405180910390fd5b61124f84848484611be6565b50505050565b6060611260826116c9565b61129f576040517f08c379a0000000000000000000000000000000000000000000000000000000008152600401611296906137b6565b60405180910390fd5b6000600d600084815260200190815260200160002080546112bf90613b56565b80601f01602080910402602001604051908101604052809291908181526020018280546112eb90613b56565b80156113385780601f1061130d57610100808354040283529160200191611338565b820191906000526020600020905b81548152906001019060200180831161131b57829003601f168201915b505050505090506000611349611c42565b905060008151141561135f5781925050506113a2565b60008251111561139457808260405160200161137c929190613509565b604051602081830303815290604052925050506113a2565b61139d84611c59565b925050505b919050565b6000600560008473ffffffffffffffffffffffffffffffffffffffff1673ffffffffffffffffffffffffffffffffffffffff16815260200190815260200160002060008373ffffffffffffffffffffffffffffffffffffffff1673ffffffffffffffffffffffffffffffffffffffff16815260200190815260200160002060009054906101000a900460ff16905092915050565b611443611735565b73ffffffffffffffffffffffffffffffffffffffff16611461610f9e565b73ffffffffffffffffffffffffffffffffffffffff16146114b7576040517f08c379a00000000000000000000000000000000000000000000000000000000081526004016114ae90613816565b60405180910390fd5b600073ffffffffffffffffffffffffffffffffffffffff168173ffffffffffffffffffffffffffffffffffffffff161415611527576040517f08c379a000000000000000000000000000000000000000000000000000000000815260040161151e90613656565b60405180910390fd5b8073ffffffffffffffffffffffffffffffffffffffff16600a60009054906101000a900473ffffffffffffffffffffffffffffffffffffffff1673ffffffffffffffffffffffffffffffffffffffff167f8be0079c531659141344cd1fd0a4f28419497f9722a3daafe3b4186f6b6457e060405160405180910390a380600a60006101000a81548173ffffffffffffffffffffffffffffffffffffffff021916908373ffffffffffffffffffffffffffffffffffffffff16021790555050565b60007f80ac58cd000000000000000000000000000000000000000000000000000000007bffffffffffffffffffffffffffffffffffffffffffffffffffffffff1916827bffffffffffffffffffffffffffffffffffffffffffffffffffffffff191614806116b257507f5b5e139f000000000000000000000000000000000000000000000000000000007bffffffffffffffffffffffffffffffffffffffffffffffffffffffff1916827bffffffffffffffffffffffffffffffffffffffffffffffffffffffff1916145b806116c257506116c182611d00565b5b9050919050565b60008073ffffffffffffffffffffffffffffffffffffffff166002600084815260200190815260200160002060009054906101000a900473ffffffffffffffffffffffffffffffffffffffff1673ffffffffffffffffffffffffffffffffffffffff1614159050919050565b600033905090565b816004600083815260200190815260200160002060006101000a81548173ffffffffffffffffffffffffffffffffffffffff021916908373ffffffffffffffffffffffffffffffffffffffff160217905550808273ffffffffffffffffffffffffffffffffffffffff166117b083610a86565b73ffffffffffffffffffffffffffffffffffffffff167f8c5be1e5ebec7d5bd14f71427d1e84f3dd0314c0f7b2291e5b200ac8c7c3b92560405160405180910390a45050565b6000611801826116c9565b611840576040517f08c379a0000000000000000000000000000000000000000000000000000000008152600401611837906136f6565b60405180910390fd5b600061184b83610a86565b90508073ffffffffffffffffffffffffffffffffffffffff168473ffffffffffffffffffffffffffffffffffffffff1614806118ba57508373ffffffffffffffffffffffffffffffffffffffff166118a284610691565b73ffffffffffffffffffffffffffffffffffffffff16145b806118cb57506118ca81856113a7565b5b91505092915050565b8273ffffffffffffffffffffffffffffffffffffffff166118f482610a86565b73ffffffffffffffffffffffffffffffffffffffff161461194a576040517f08c379a000000000000000000000000000000000000000000000000000000000815260040161194190613836565b60405180910390fd5b600073ffffffffffffffffffffffffffffffffffffffff168273ffffffffffffffffffffffffffffffffffffffff1614156119ba576040517f08c379a00000000000000000000000000000000000000000000000000000000081526004016119b190613696565b60405180910390fd5b6119c5838383611d6a565b6119d060008261173d565b6001600360008573ffffffffffffffffffffffffffffffffffffffff1673ffffffffffffffffffffffffffffffffffffffff1681526020019081526020016000206000828254611a209190613a6c565b925050819055506001600360008473ffffffffffffffffffffffffffffffffffffffff1673ffffffffffffffffffffffffffffffffffffffff1681526020019081526020016000206000828254611a7791906139e5565b92505081905550816002600083815260200190815260200160002060006101000a81548173ffffffffffffffffffffffffffffffffffffffff021916908373ffffffffffffffffffffffffffffffffffffffff160217905550808273ffffffffffffffffffffffffffffffffffffffff168473ffffffffffffffffffffffffffffffffffffffff167fddf252ad1be2c89b69c2b068fc378daa952ba7f163c4a11628f55a4df523b3ef60405160405180910390a4505050565b6001816000016000828254019250508190555050565b600081600001549050919050565b611b6e828260405180602001604052806000815250611e7e565b5050565b611b7b826116c9565b611bba576040517f08c379a0000000000000000000000000000000000000000000000000000000008152600401611bb190613776565b60405180910390fd5b80600d60008481526020019081526020016000209080519060200190611be192919061277b565b505050565b611bf18484846118d4565b611bfd84848484611ed9565b611c3c576040517f08c379a0000000000000000000000000000000000000000000000000000000008152600401611c3390613636565b60405180910390fd5b50505050565b606060405180602001604052806000815250905090565b6060611c64826116c9565b611ca3576040517f08c379a0000000000000000000000000000000000000000000000000000000008152600401611c9a90613856565b60405180910390fd5b6000611cad611c42565b90506000815111611ccd5760405180602001604052806000815250611cf8565b80611cd784612070565b604051602001611ce8929190613509565b6040516020818303038152906040525b915050919050565b60007f01ffc9a7000000000000000000000000000000000000000000000000000000007bffffffffffffffffffffffffffffffffffffffffffffffffffffffff1916827bffffffffffffffffffffffffffffffffffffffffffffffffffffffff1916149050919050565b611d7583838361221d565b600073ffffffffffffffffffffffffffffffffffffffff168373ffffffffffffffffffffffffffffffffffffffff161415611db857611db381612222565b611df7565b8173ffffffffffffffffffffffffffffffffffffffff168373ffffffffffffffffffffffffffffffffffffffff1614611df657611df5838261226b565b5b5b600073ffffffffffffffffffffffffffffffffffffffff168273ffffffffffffffffffffffffffffffffffffffff161415611e3a57611e35816123d8565b611e79565b8273ffffffffffffffffffffffffffffffffffffffff168273ffffffffffffffffffffffffffffffffffffffff1614611e7857611e77828261251b565b5b5b505050565b611e88838361259a565b611e956000848484611ed9565b611ed4576040517f08c379a0000000000000000000000000000000000000000000000000000000008152600401611ecb90613636565b60405180910390fd5b505050565b6000611efa8473ffffffffffffffffffffffffffffffffffffffff16612768565b15612063578373ffffffffffffffffffffffffffffffffffffffff1663150b7a02611f23611735565b8786866040518563ffffffff1660e01b8152600401611f459493929190613548565b602060405180830381600087803b158015611f5f57600080fd5b505af1925050508015611f9057506040513d601f19601f82011682018060405250810190611f8d9190612b27565b60015b612013573d8060008114611fc0576040519150601f19603f3d011682016040523d82523d6000602084013e611fc5565b606091505b5060008151141561200b576040517f08c379a000000000000000000000000000000000000000000000000000000000815260040161200290613636565b60405180910390fd5b805181602001fd5b63150b7a0260e01b7bffffffffffffffffffffffffffffffffffffffffffffffffffffffff1916817bffffffffffffffffffffffffffffffffffffffffffffffffffffffff191614915050612068565b600190505b949350505050565b606060008214156120b8576040518060400160405280600181526020017f30000000000000000000000000000000000000000000000000000000000000008152509050612218565b600082905060005b600082146120ea5780806120d390613b88565b915050600a826120e39190613a3b565b91506120c0565b60008167ffffffffffffffff81111561212c577f4e487b7100000000000000000000000000000000000000000000000000000000600052604160045260246000fd5b6040519080825280601f01601f19166020018201604052801561215e5781602001600182028036833780820191505090505b5090505b60008514612211576001826121779190613a6c565b9150600a856121869190613bd1565b603061219291906139e5565b60f81b8183815181106121ce577f4e487b7100000000000000000000000000000000000000000000000000000000600052603260045260246000fd5b60200101907effffffffffffffffffffffffffffffffffffffffffffffffffffffffffffff1916908160001a905350600a8561220a9190613a3b565b9450612162565b8093505050505b919050565b505050565b6008805490506009600083815260200190815260200160002081905550600881908060018154018082558091505060019003906000526020600020016000909190919091505550565b6000600161227884610da9565b6122829190613a6c565b9050600060076000848152602001908152602001600020549050818114612367576000600660008673ffffffffffffffffffffffffffffffffffffffff1673ffffffffffffffffffffffffffffffffffffffff168152602001908152602001600020600084815260200190815260200160002054905080600660008773ffffffffffffffffffffffffffffffffffffffff1673ffffffffffffffffffffffffffffffffffffffff168152602001908152602001600020600084815260200190815260200160002081905550816007600083815260200190815260200160002081905550505b6007600084815260200190815260200160002060009055600660008573ffffffffffffffffffffffffffffffffffffffff1673ffffffffffffffffffffffffffffffffffffffff16815260200190815260200160002060008381526020019081526020016000206000905550505050565b600060016008805490506123ec9190613a6c565b9050600060096000848152602001908152602001600020549050600060088381548110612442577f4e487b7100000000000000000000000000000000000000000000000000000000600052603260045260246000fd5b90600052602060002001549050806008838154811061248a577f4e487b7100000000000000000000000000000000000000000000000000000000600052603260045260246000fd5b9060005260206000200181905550816009600083815260200190815260200160002081905550600960008581526020019081526020016000206000905560088054806124ff577f4e487b7100000000000000000000000000000000000000000000000000000000600052603160045260246000fd5b6001900381819060005260206000200160009055905550505050565b600061252683610da9565b905081600660008573ffffffffffffffffffffffffffffffffffffffff1673ffffffffffffffffffffffffffffffffffffffff168152602001908152602001600020600083815260200190815260200160002081905550806007600084815260200190815260200160002081905550505050565b600073ffffffffffffffffffffffffffffffffffffffff168273ffffffffffffffffffffffffffffffffffffffff16141561260a576040517f08c379a000000000000000000000000000000000000000000000000000000000815260040161260190613796565b60405180910390fd5b612613816116c9565b15612653576040517f08c379a000000000000000000000000000000000000000000000000000000000815260040161264a90613676565b60405180910390fd5b61265f60008383611d6a565b6001600360008473ffffffffffffffffffffffffffffffffffffffff1673ffffffffffffffffffffffffffffffffffffffff16815260200190815260200160002060008282546126af91906139e5565b92505081905550816002600083815260200190815260200160002060006101000a81548173ffffffffffffffffffffffffffffffffffffffff021916908373ffffffffffffffffffffffffffffffffffffffff160217905550808273ffffffffffffffffffffffffffffffffffffffff16600073ffffffffffffffffffffffffffffffffffffffff167fddf252ad1be2c89b69c2b068fc378daa952ba7f163c4a11628f55a4df523b3ef60405160405180910390a45050565b600080823b905060008111915050919050565b82805461278790613b56565b90600052602060002090601f0160209004810192826127a957600085556127f0565b82601f106127c257805160ff19168380011785556127f0565b828001600101855582156127f0579182015b828111156127ef5782518255916020019190600101906127d4565b5b5090506127fd9190612801565b5090565b5b8082111561281a576000816000905550600101612802565b5090565b600061283161282c84613942565b613911565b90508281526020810184848401111561284957600080fd5b612854848285613b14565b509392505050565b600061286f61286a84613972565b613911565b90508281526020810184848401111561288757600080fd5b612892848285613b14565b509392505050565b6000813590506128a981613ccf565b92915050565b6000813590506128be81613ce6565b92915050565b6000813590506128d381613cfd565b92915050565b6000815190506128e881613cfd565b92915050565b600082601f8301126128ff57600080fd5b813561290f84826020860161281e565b91505092915050565b600082601f83011261292957600080fd5b813561293984826020860161285c565b91505092915050565b60008135905061295181613d14565b92915050565b60006020828403121561296957600080fd5b60006129778482850161289a565b91505092915050565b6000806040838503121561299357600080fd5b60006129a18582860161289a565b92505060206129b28582860161289a565b9150509250929050565b6000806000606084860312156129d157600080fd5b60006129df8682870161289a565b93505060206129f08682870161289a565b9250506040612a0186828701612942565b9150509250925092565b60008060008060808587031215612a2157600080fd5b6000612a2f8782880161289a565b9450506020612a408782880161289a565b9350506040612a5187828801612942565b925050606085013567ffffffffffffffff811115612a6e57600080fd5b612a7a878288016128ee565b91505092959194509250565b60008060408385031215612a9957600080fd5b6000612aa78582860161289a565b9250506020612ab8858286016128af565b9150509250929050565b60008060408385031215612ad557600080fd5b6000612ae38582860161289a565b9250506020612af485828601612942565b9150509250929050565b600060208284031215612b1057600080fd5b6000612b1e848285016128c4565b91505092915050565b600060208284031215612b3957600080fd5b6000612b47848285016128d9565b91505092915050565b60008060408385031215612b6357600080fd5b600083013567ffffffffffffffff811115612b7d57600080fd5b612b8985828601612918565b9250506020612b9a85828601612942565b9150509250929050565b600060208284031215612bb657600080fd5b6000612bc484828501612942565b91505092915050565b612bd681613aa0565b82525050565b612be581613ab2565b82525050565b6000612bf6826139a2565b612c0081856139b8565b9350612c10818560208601613b23565b612c1981613cbe565b840191505092915050565b6000612c2f826139ad565b612c3981856139c9565b9350612c49818560208601613b23565b612c5281613cbe565b840191505092915050565b6000612c68826139ad565b612c7281856139da565b9350612c82818560208601613b23565b80840191505092915050565b6000612c9b602b836139c9565b91507f455243373231456e756d657261626c653a206f776e657220696e646578206f7560008301527f74206f6620626f756e64730000000000000000000000000000000000000000006020830152604082019050919050565b6000612d016032836139c9565b91507f4552433732313a207472616e7366657220746f206e6f6e20455243373231526560008301527f63656976657220696d706c656d656e74657200000000000000000000000000006020830152604082019050919050565b6000612d676026836139c9565b91507f4f776e61626c653a206e6577206f776e657220697320746865207a65726f206160008301527f64647265737300000000000000000000000000000000000000000000000000006020830152604082019050919050565b6000612dcd601c836139c9565b91507f4552433732313a20746f6b656e20616c7265616479206d696e746564000000006000830152602082019050919050565b6000612e0d6024836139c9565b91507f4552433732313a207472616e7366657220746f20746865207a65726f2061646460008301527f72657373000000000000000000000000000000000000000000000000000000006020830152604082019050919050565b6000612e736019836139c9565b91507f4552433732313a20617070726f766520746f2063616c6c6572000000000000006000830152602082019050919050565b6000612eb36026836139c9565b91507f50657453686f703a20596f75206e65656420746f206861766520656e6f75676860008301527f20457468657200000000000000000000000000000000000000000000000000006020830152604082019050919050565b6000612f19602c836139c9565b91507f4552433732313a206f70657261746f7220717565727920666f72206e6f6e657860008301527f697374656e7420746f6b656e00000000000000000000000000000000000000006020830152604082019050919050565b6000612f7f6038836139c9565b91507f4552433732313a20617070726f76652063616c6c6572206973206e6f74206f7760008301527f6e6572206e6f7220617070726f76656420666f7220616c6c00000000000000006020830152604082019050919050565b6000612fe5602a836139c9565b91507f4552433732313a2062616c616e636520717565727920666f7220746865207a6560008301527f726f2061646472657373000000000000000000000000000000000000000000006020830152604082019050919050565b600061304b6029836139c9565b91507f4552433732313a206f776e657220717565727920666f72206e6f6e657869737460008301527f656e7420746f6b656e00000000000000000000000000000000000000000000006020830152604082019050919050565b60006130b1602e836139c9565b91507f45524337323155524953746f726167653a2055524920736574206f66206e6f6e60008301527f6578697374656e7420746f6b656e0000000000000000000000000000000000006020830152604082019050919050565b60006131176020836139c9565b91507f4552433732313a206d696e7420746f20746865207a65726f20616464726573736000830152602082019050919050565b60006131576031836139c9565b91507f45524337323155524953746f726167653a2055524920717565727920666f722060008301527f6e6f6e6578697374656e7420746f6b656e0000000000000000000000000000006020830152604082019050919050565b60006131bd601a836139c9565b91507f50657453686f703a20746f6b656e4964206e6f742076616c69640000000000006000830152602082019050919050565b60006131fd602c836139c9565b91507f4552433732313a20617070726f76656420717565727920666f72206e6f6e657860008301527f697374656e7420746f6b656e00000000000000000000000000000000000000006020830152604082019050919050565b60006132636020836139c9565b91507f4f776e61626c653a2063616c6c6572206973206e6f7420746865206f776e65726000830152602082019050919050565b60006132a36029836139c9565b91507f4552433732313a207472616e73666572206f6620746f6b656e2074686174206960008301527f73206e6f74206f776e00000000000000000000000000000000000000000000006020830152604082019050919050565b6000613309602f836139c9565b91507f4552433732314d657461646174613a2055524920717565727920666f72206e6f60008301527f6e6578697374656e7420746f6b656e00000000000000000000000000000000006020830152604082019050919050565b600061336f6021836139c9565b91507f4552433732313a20617070726f76616c20746f2063757272656e74206f776e6560008301527f72000000000000000000000000000000000000000000000000000000000000006020830152604082019050919050565b60006133d56040836139c9565b91507f50657453686f703a20636f6e7472616374206f776e65722063616e277420627560008301527f79206f7220796f7520616c726561647920626f756768742074686973207065746020830152604082019050919050565b600061343b6031836139c9565b91507f4552433732313a207472616e736665722063616c6c6572206973206e6f74206f60008301527f776e6572206e6f7220617070726f7665640000000000000000000000000000006020830152604082019050919050565b60006134a1602c836139c9565b91507f455243373231456e756d657261626c653a20676c6f62616c20696e646578206f60008301527f7574206f6620626f756e647300000000000000000000000000000000000000006020830152604082019050919050565b61350381613b0a565b82525050565b60006135158285612c5d565b91506135218284612c5d565b91508190509392505050565b60006020820190506135426000830184612bcd565b92915050565b600060808201905061355d6000830187612bcd565b61356a6020830186612bcd565b61357760408301856134fa565b81810360608301526135898184612beb565b905095945050505050565b60006080820190506135a96000830187612bcd565b6135b66020830186612bcd565b6135c360408301856134fa565b6135d060608301846134fa565b95945050505050565b60006020820190506135ee6000830184612bdc565b92915050565b6000602082019050818103600083015261360e8184612c24565b905092915050565b6000602082019050818103600083015261362f81612c8e565b9050919050565b6000602082019050818103600083015261364f81612cf4565b9050919050565b6000602082019050818103600083015261366f81612d5a565b9050919050565b6000602082019050818103600083015261368f81612dc0565b9050919050565b600060208201905081810360008301526136af81612e00565b9050919050565b600060208201905081810360008301526136cf81612e66565b9050919050565b600060208201905081810360008301526136ef81612ea6565b9050919050565b6000602082019050818103600083015261370f81612f0c565b9050919050565b6000602082019050818103600083015261372f81612f72565b9050919050565b6000602082019050818103600083015261374f81612fd8565b9050919050565b6000602082019050818103600083015261376f8161303e565b9050919050565b6000602082019050818103600083015261378f816130a4565b9050919050565b600060208201905081810360008301526137af8161310a565b9050919050565b600060208201905081810360008301526137cf8161314a565b9050919050565b600060208201905081810360008301526137ef816131b0565b9050919050565b6000602082019050818103600083015261380f816131f0565b9050919050565b6000602082019050818103600083015261382f81613256565b9050919050565b6000602082019050818103600083015261384f81613296565b9050919050565b6000602082019050818103600083015261386f816132fc565b9050919050565b6000602082019050818103600083015261388f81613362565b9050919050565b600060208201905081810360008301526138af816133c8565b9050919050565b600060208201905081810360008301526138cf8161342e565b9050919050565b600060208201905081810360008301526138ef81613494565b9050919050565b600060208201905061390b60008301846134fa565b92915050565b6000604051905081810181811067ffffffffffffffff8211171561393857613937613c8f565b5b8060405250919050565b600067ffffffffffffffff82111561395d5761395c613c8f565b5b601f19601f8301169050602081019050919050565b600067ffffffffffffffff82111561398d5761398c613c8f565b5b601f19601f8301169050602081019050919050565b600081519050919050565b600081519050919050565b600082825260208201905092915050565b600082825260208201905092915050565b600081905092915050565b60006139f082613b0a565b91506139fb83613b0a565b9250827fffffffffffffffffffffffffffffffffffffffffffffffffffffffffffffffff03821115613a3057613a2f613c02565b5b828201905092915050565b6000613a4682613b0a565b9150613a5183613b0a565b925082613a6157613a60613c31565b5b828204905092915050565b6000613a7782613b0a565b9150613a8283613b0a565b925082821015613a9557613a94613c02565b5b828203905092915050565b6000613aab82613aea565b9050919050565b60008115159050919050565b60007fffffffff0000000000000000000000000000000000000000000000000000000082169050919050565b600073ffffffffffffffffffffffffffffffffffffffff82169050919050565b6000819050919050565b82818337600083830152505050565b60005b83811015613b41578082015181840152602081019050613b26565b83811115613b50576000848401525b50505050565b60006002820490506001821680613b6e57607f821691505b60208210811415613b8257613b81613c60565b5b50919050565b6000613b9382613b0a565b91507fffffffffffffffffffffffffffffffffffffffffffffffffffffffffffffffff821415613bc657613bc5613c02565b5b600182019050919050565b6000613bdc82613b0a565b9150613be783613b0a565b925082613bf757613bf6613c31565b5b828206905092915050565b7f4e487b7100000000000000000000000000000000000000000000000000000000600052601160045260246000fd5b7f4e487b7100000000000000000000000000000000000000000000000000000000600052601260045260246000fd5b7f4e487b7100000000000000000000000000000000000000000000000000000000600052602260045260246000fd5b7f4e487b7100000000000000000000000000000000000000000000000000000000600052604160045260246000fd5b6000601f19601f8301169050919050565b613cd881613aa0565b8114613ce357600080fd5b50565b613cef81613ab2565b8114613cfa57600080fd5b50565b613d0681613abe565b8114613d1157600080fd5b50565b613d1d81613b0a565b8114613d2857600080fd5b5056fea264697066735822122069b1dc162e6f6346a7e5a8c9551b56587a2f6f95dfc8ca20d3d4bdd23cc0e65764736f6c63430008000033",
  "immutableReferences": {},
  "source": "// SPDX-License-Identifier: NO-LICENSE\npragma solidity ^0.8.0;\n\nimport \"@openzeppelin/contracts/token/ERC721/extensions/ERC721Enumerable.sol\";\nimport \"@openzeppelin/contracts/utils/Counters.sol\";\nimport \"@openzeppelin/contracts/access/Ownable.sol\";\n\ncontract PetShop is ERC721Enumerable, Ownable {\n    using Counters for Counters.Counter;\n    Counters.Counter private _tokenIds;\n\n    using Strings for uint256;\n\n    // mapping the TokenId to price\n    mapping(uint256 => uint256) public petsPrice;\n\n    //  mapping for token URIs\n    mapping(uint256 => string) private _tokenURIs;\n\n    event PetTransfer(\n        uint256 indexed tokenId,\n        address oldOwner,\n        address newOwner,\n        uint256 price,\n        uint256 date\n    );\n\n    modifier onlyTokenOwner(uint256 tokenId) {\n        require(\n            ownerOf(tokenId) == msg.sender,\n            \"PetShop: caller is not the token owner\"\n        );\n        _;\n    }\n\n    constructor() ERC721(\"PetShopNFT\", \"PNFT\") {}\n\n    function tokenURI(uint256 tokenId)\n        public\n        view\n        virtual\n        override\n        returns (string memory)\n    {\n        require(\n            _exists(tokenId),\n            \"ERC721URIStorage: URI query for nonexistent token\"\n        );\n\n        string memory _tokenURI = _tokenURIs[tokenId];\n        string memory base = _baseURI();\n\n        // If there is no base URI, return the token URI.\n        if (bytes(base).length == 0) {\n            return _tokenURI;\n        }\n        // If both are set, concatenate the baseURI and tokenURI (via abi.encodePacked).\n        if (bytes(_tokenURI).length > 0) {\n            return string(abi.encodePacked(base, _tokenURI));\n        }\n\n        return super.tokenURI(tokenId);\n    }\n\n  \n    function _setTokenURI(uint256 tokenId, string memory _tokenURI)\n        internal\n        virtual\n    {\n        require(\n            _exists(tokenId),\n            \"ERC721URIStorage: URI set of nonexistent token\"\n        );\n        _tokenURIs[tokenId] = _tokenURI;\n    }\n\n    function mintPetNft(string memory _tokenURI, uint256 _price)\n        external\n        returns (uint256)\n    {\n        _tokenIds.increment();\n        uint256 newItemId = _tokenIds.current();\n        _safeMint(msg.sender, newItemId);\n        petsPrice[newItemId] = _price;\n        // petsOnSale[newItemId] = false;\n        _setTokenURI(newItemId, _tokenURI);\n        emit PetTransfer(newItemId,address(0),msg.sender, _price,block.timestamp);\n        return newItemId;\n    }\n\n    // function putPetOnSale(uint256 _tokenId)\n    //     external\n    //     onlyTokenOwner(_tokenId)\n    //     returns (bool)\n    // {\n    //     require(\n    //         _tokenId > 0 && _exists(_tokenId),\n    //         \"PetShop: tokenId not valid\"\n    //     );\n    //     petsOnSale[_tokenId] = true;\n    //     return true;\n    // }\n\n    function buyPetNft(uint256 _tokenId) public payable returns (bool) {\n        require(\n            _tokenId > 0 && _exists(_tokenId),\n            \"PetShop: tokenId not valid\"\n        );\n        address ownerAddress = ownerOf(_tokenId);\n        require(\n            msg.sender != ownerAddress && msg.sender != owner(),\n            \"PetShop: contract owner can't buy or you already bought this pet\"\n        );\n        uint256 petCost = petsPrice[_tokenId];\n        require(msg.value >= petCost, \"PetShop: You need to have enough Ether\");\n        _safeTransfer(ownerAddress, msg.sender, _tokenId, \"\");\n        payable(ownerAddress).transfer(petCost);\n        if (msg.value > petCost) {\n            payable(msg.sender).transfer(msg.value - petCost);\n        }\n        emit PetTransfer( _tokenId,msg.sender,ownerAddress, msg.value,block.timestamp);\n        return true;\n    }\n}\n",
  "sourcePath": "/home/asadullah/pet-shop/contracts/PetShop.sol",
  "compiler": {
    "name": "solc",
    "version": "0.8.0+commit.c7dfd78e.Emscripten.clang"
  },
  "schemaVersion": "3.4.0",
  "updatedAt": "2021-07-06T14:12:23.321Z",
  "networkType": "ethereum",
  "devdoc": {
    "kind": "dev",
    "methods": {
      "approve(address,uint256)": {
        "details": "See {IERC721-approve}."
      },
      "balanceOf(address)": {
        "details": "See {IERC721-balanceOf}."
      },
      "getApproved(uint256)": {
        "details": "See {IERC721-getApproved}."
      },
      "isApprovedForAll(address,address)": {
        "details": "See {IERC721-isApprovedForAll}."
      },
      "name()": {
        "details": "See {IERC721Metadata-name}."
      },
      "owner()": {
        "details": "Returns the address of the current owner."
      },
      "ownerOf(uint256)": {
        "details": "See {IERC721-ownerOf}."
      },
      "renounceOwnership()": {
        "details": "Leaves the contract without owner. It will not be possible to call `onlyOwner` functions anymore. Can only be called by the current owner. NOTE: Renouncing ownership will leave the contract without an owner, thereby removing any functionality that is only available to the owner."
      },
      "safeTransferFrom(address,address,uint256)": {
        "details": "See {IERC721-safeTransferFrom}."
      },
      "safeTransferFrom(address,address,uint256,bytes)": {
        "details": "See {IERC721-safeTransferFrom}."
      },
      "setApprovalForAll(address,bool)": {
        "details": "See {IERC721-setApprovalForAll}."
      },
      "supportsInterface(bytes4)": {
        "details": "See {IERC165-supportsInterface}."
      },
      "symbol()": {
        "details": "See {IERC721Metadata-symbol}."
      },
      "tokenByIndex(uint256)": {
        "details": "See {IERC721Enumerable-tokenByIndex}."
      },
      "tokenOfOwnerByIndex(address,uint256)": {
        "details": "See {IERC721Enumerable-tokenOfOwnerByIndex}."
      },
      "tokenURI(uint256)": {
        "details": "See {IERC721Metadata-tokenURI}."
      },
      "totalSupply()": {
        "details": "See {IERC721Enumerable-totalSupply}."
      },
      "transferFrom(address,address,uint256)": {
        "details": "See {IERC721-transferFrom}."
      },
      "transferOwnership(address)": {
        "details": "Transfers ownership of the contract to a new account (`newOwner`). Can only be called by the current owner."
      }
    },
    "version": 1
  },
  "userdoc": {
    "kind": "user",
    "methods": {},
    "version": 1
  }
}