{
  "contractName": "PetShop",
  "abi": [
    {
      "inputs": [],
      "stateMutability": "nonpayable",
      "type": "constructor"
    },
    {
      "anonymous": false,
      "inputs": [
        {
          "indexed": true,
          "internalType": "address",
          "name": "owner",
          "type": "address"
        },
        {
          "indexed": true,
          "internalType": "address",
          "name": "approved",
          "type": "address"
        },
        {
          "indexed": true,
          "internalType": "uint256",
          "name": "tokenId",
          "type": "uint256"
        }
      ],
      "name": "Approval",
      "type": "event"
    },
    {
      "anonymous": false,
      "inputs": [
        {
          "indexed": true,
          "internalType": "address",
          "name": "owner",
          "type": "address"
        },
        {
          "indexed": true,
          "internalType": "address",
          "name": "operator",
          "type": "address"
        },
        {
          "indexed": false,
          "internalType": "bool",
          "name": "approved",
          "type": "bool"
        }
      ],
      "name": "ApprovalForAll",
      "type": "event"
    },
    {
      "anonymous": false,
      "inputs": [
        {
          "indexed": true,
          "internalType": "address",
          "name": "previousOwner",
          "type": "address"
        },
        {
          "indexed": true,
          "internalType": "address",
          "name": "newOwner",
          "type": "address"
        }
      ],
      "name": "OwnershipTransferred",
      "type": "event"
    },
    {
      "anonymous": false,
      "inputs": [
        {
          "indexed": true,
          "internalType": "address",
          "name": "owner",
          "type": "address"
        },
        {
          "indexed": false,
          "internalType": "uint256",
          "name": "tokenId",
          "type": "uint256"
        },
        {
          "indexed": false,
          "internalType": "uint256",
          "name": "price",
          "type": "uint256"
        },
        {
          "indexed": false,
          "internalType": "string",
          "name": "tokenURI",
          "type": "string"
        }
      ],
      "name": "PetCreated",
      "type": "event"
    },
    {
      "anonymous": false,
      "inputs": [
        {
          "indexed": true,
          "internalType": "address",
          "name": "prevOwner",
          "type": "address"
        },
        {
          "indexed": true,
          "internalType": "address",
          "name": "newOwner",
          "type": "address"
        },
        {
          "indexed": false,
          "internalType": "uint256",
          "name": "tokenId",
          "type": "uint256"
        },
        {
          "indexed": false,
          "internalType": "uint256",
          "name": "price",
          "type": "uint256"
        }
      ],
      "name": "PetPurchase",
      "type": "event"
    },
    {
      "anonymous": false,
      "inputs": [
        {
          "indexed": true,
          "internalType": "address",
          "name": "from",
          "type": "address"
        },
        {
          "indexed": true,
          "internalType": "address",
          "name": "to",
          "type": "address"
        },
        {
          "indexed": true,
          "internalType": "uint256",
          "name": "tokenId",
          "type": "uint256"
        }
      ],
      "name": "Transfer",
      "type": "event"
    },
    {
      "inputs": [
        {
          "internalType": "address",
          "name": "to",
          "type": "address"
        },
        {
          "internalType": "uint256",
          "name": "tokenId",
          "type": "uint256"
        }
      ],
      "name": "approve",
      "outputs": [],
      "stateMutability": "nonpayable",
      "type": "function"
    },
    {
      "inputs": [
        {
          "internalType": "address",
          "name": "owner",
          "type": "address"
        }
      ],
      "name": "balanceOf",
      "outputs": [
        {
          "internalType": "uint256",
          "name": "",
          "type": "uint256"
        }
      ],
      "stateMutability": "view",
      "type": "function",
      "constant": true
    },
    {
      "inputs": [
        {
          "internalType": "uint256",
          "name": "tokenId",
          "type": "uint256"
        }
      ],
      "name": "getApproved",
      "outputs": [
        {
          "internalType": "address",
          "name": "",
          "type": "address"
        }
      ],
      "stateMutability": "view",
      "type": "function",
      "constant": true
    },
    {
      "inputs": [
        {
          "internalType": "address",
          "name": "owner",
          "type": "address"
        },
        {
          "internalType": "address",
          "name": "operator",
          "type": "address"
        }
      ],
      "name": "isApprovedForAll",
      "outputs": [
        {
          "internalType": "bool",
          "name": "",
          "type": "bool"
        }
      ],
      "stateMutability": "view",
      "type": "function",
      "constant": true
    },
    {
      "inputs": [],
      "name": "name",
      "outputs": [
        {
          "internalType": "string",
          "name": "",
          "type": "string"
        }
      ],
      "stateMutability": "view",
      "type": "function",
      "constant": true
    },
    {
      "inputs": [],
      "name": "owner",
      "outputs": [
        {
          "internalType": "address",
          "name": "",
          "type": "address"
        }
      ],
      "stateMutability": "view",
      "type": "function",
      "constant": true
    },
    {
      "inputs": [
        {
          "internalType": "uint256",
          "name": "tokenId",
          "type": "uint256"
        }
      ],
      "name": "ownerOf",
      "outputs": [
        {
          "internalType": "address",
          "name": "",
          "type": "address"
        }
      ],
      "stateMutability": "view",
      "type": "function",
      "constant": true
    },
    {
      "inputs": [
        {
          "internalType": "uint256",
          "name": "",
          "type": "uint256"
        }
      ],
      "name": "petsOnSale",
      "outputs": [
        {
          "internalType": "bool",
          "name": "",
          "type": "bool"
        }
      ],
      "stateMutability": "view",
      "type": "function",
      "constant": true
    },
    {
      "inputs": [
        {
          "internalType": "uint256",
          "name": "",
          "type": "uint256"
        }
      ],
      "name": "petsPrice",
      "outputs": [
        {
          "internalType": "uint256",
          "name": "",
          "type": "uint256"
        }
      ],
      "stateMutability": "view",
      "type": "function",
      "constant": true
    },
    {
      "inputs": [],
      "name": "renounceOwnership",
      "outputs": [],
      "stateMutability": "nonpayable",
      "type": "function"
    },
    {
      "inputs": [
        {
          "internalType": "address",
          "name": "from",
          "type": "address"
        },
        {
          "internalType": "address",
          "name": "to",
          "type": "address"
        },
        {
          "internalType": "uint256",
          "name": "tokenId",
          "type": "uint256"
        }
      ],
      "name": "safeTransferFrom",
      "outputs": [],
      "stateMutability": "nonpayable",
      "type": "function"
    },
    {
      "inputs": [
        {
          "internalType": "address",
          "name": "from",
          "type": "address"
        },
        {
          "internalType": "address",
          "name": "to",
          "type": "address"
        },
        {
          "internalType": "uint256",
          "name": "tokenId",
          "type": "uint256"
        },
        {
          "internalType": "bytes",
          "name": "_data",
          "type": "bytes"
        }
      ],
      "name": "safeTransferFrom",
      "outputs": [],
      "stateMutability": "nonpayable",
      "type": "function"
    },
    {
      "inputs": [
        {
          "internalType": "address",
          "name": "operator",
          "type": "address"
        },
        {
          "internalType": "bool",
          "name": "approved",
          "type": "bool"
        }
      ],
      "name": "setApprovalForAll",
      "outputs": [],
      "stateMutability": "nonpayable",
      "type": "function"
    },
    {
      "inputs": [
        {
          "internalType": "bytes4",
          "name": "interfaceId",
          "type": "bytes4"
        }
      ],
      "name": "supportsInterface",
      "outputs": [
        {
          "internalType": "bool",
          "name": "",
          "type": "bool"
        }
      ],
      "stateMutability": "view",
      "type": "function",
      "constant": true
    },
    {
      "inputs": [],
      "name": "symbol",
      "outputs": [
        {
          "internalType": "string",
          "name": "",
          "type": "string"
        }
      ],
      "stateMutability": "view",
      "type": "function",
      "constant": true
    },
    {
      "inputs": [
        {
          "internalType": "uint256",
          "name": "index",
          "type": "uint256"
        }
      ],
      "name": "tokenByIndex",
      "outputs": [
        {
          "internalType": "uint256",
          "name": "",
          "type": "uint256"
        }
      ],
      "stateMutability": "view",
      "type": "function",
      "constant": true
    },
    {
      "inputs": [
        {
          "internalType": "address",
          "name": "owner",
          "type": "address"
        },
        {
          "internalType": "uint256",
          "name": "index",
          "type": "uint256"
        }
      ],
      "name": "tokenOfOwnerByIndex",
      "outputs": [
        {
          "internalType": "uint256",
          "name": "",
          "type": "uint256"
        }
      ],
      "stateMutability": "view",
      "type": "function",
      "constant": true
    },
    {
      "inputs": [],
      "name": "totalSupply",
      "outputs": [
        {
          "internalType": "uint256",
          "name": "",
          "type": "uint256"
        }
      ],
      "stateMutability": "view",
      "type": "function",
      "constant": true
    },
    {
      "inputs": [
        {
          "internalType": "address",
          "name": "from",
          "type": "address"
        },
        {
          "internalType": "address",
          "name": "to",
          "type": "address"
        },
        {
          "internalType": "uint256",
          "name": "tokenId",
          "type": "uint256"
        }
      ],
      "name": "transferFrom",
      "outputs": [],
      "stateMutability": "nonpayable",
      "type": "function"
    },
    {
      "inputs": [
        {
          "internalType": "address",
          "name": "newOwner",
          "type": "address"
        }
      ],
      "name": "transferOwnership",
      "outputs": [],
      "stateMutability": "nonpayable",
      "type": "function"
    },
    {
      "inputs": [
        {
          "internalType": "uint256",
          "name": "tokenId",
          "type": "uint256"
        }
      ],
      "name": "tokenURI",
      "outputs": [
        {
          "internalType": "string",
          "name": "",
          "type": "string"
        }
      ],
      "stateMutability": "view",
      "type": "function",
      "constant": true
    },
    {
      "inputs": [
        {
          "internalType": "string",
          "name": "_tokenURI",
          "type": "string"
        },
        {
          "internalType": "uint256",
          "name": "_price",
          "type": "uint256"
        }
      ],
      "name": "mintPetNft",
      "outputs": [
        {
          "internalType": "uint256",
          "name": "",
          "type": "uint256"
        }
      ],
      "stateMutability": "nonpayable",
      "type": "function"
    },
    {
      "inputs": [
        {
          "internalType": "uint256",
          "name": "_tokenId",
          "type": "uint256"
        }
      ],
      "name": "putPetOnSale",
      "outputs": [
        {
          "internalType": "bool",
          "name": "",
          "type": "bool"
        }
      ],
      "stateMutability": "nonpayable",
      "type": "function"
    },
    {
      "inputs": [
        {
          "internalType": "uint256",
          "name": "_tokenId",
          "type": "uint256"
        }
      ],
      "name": "buyPetNft",
      "outputs": [
        {
          "internalType": "bool",
          "name": "",
          "type": "bool"
        }
      ],
      "stateMutability": "payable",
      "type": "function",
      "payable": true
    }
  ],
  "bytecode": "0x60806040523480156200001157600080fd5b506040518060400160405280600a81526020017f50657453686f704e4654000000000000000000000000000000000000000000008152506040518060400160405280600481526020017f504e46540000000000000000000000000000000000000000000000000000000081525081600090805190602001906200009692919062000171565b508060019080519060200190620000af92919062000171565b5050506000620000c46200016960201b60201c565b905080600a60006101000a81548173ffffffffffffffffffffffffffffffffffffffff021916908373ffffffffffffffffffffffffffffffffffffffff1602179055508073ffffffffffffffffffffffffffffffffffffffff16600073ffffffffffffffffffffffffffffffffffffffff167f8be0079c531659141344cd1fd0a4f28419497f9722a3daafe3b4186f6b6457e060405160405180910390a35062000286565b600033905090565b8280546200017f9062000221565b90600052602060002090601f016020900481019282620001a35760008555620001ef565b82601f10620001be57805160ff1916838001178555620001ef565b82800160010185558215620001ef579182015b82811115620001ee578251825591602001919060010190620001d1565b5b509050620001fe919062000202565b5090565b5b808211156200021d57600081600090555060010162000203565b5090565b600060028204905060018216806200023a57607f821691505b6020821081141562000251576200025062000257565b5b50919050565b7f4e487b7100000000000000000000000000000000000000000000000000000000600052602260045260246000fd5b61402480620002966000396000f3fe60806040526004361061014b5760003560e01c80636da4ae2f116100b6578063a22cb4651161006f578063a22cb465146104e3578063a756e1951461050c578063b88d4fde14610549578063c87b56dd14610572578063e985e9c5146105af578063f2fde38b146105ec5761014b565b80636da4ae2f146103cc57806370a08231146103fc578063715018a6146104395780638da5cb5b1461045057806395d89b411461047b5780639ea8e53e146104a65761014b565b80632aba97d0116101085780632aba97d0146102725780632f745c59146102af57806342842e0e146102ec5780634f6ccce7146103155780636352211e146103525780636a6ca9961461038f5761014b565b806301ffc9a71461015057806306fdde031461018d578063081812fc146101b8578063095ea7b3146101f557806318160ddd1461021e57806323b872dd14610249575b600080fd5b34801561015c57600080fd5b5061017760048036038101906101729190612d19565b610615565b6040516101849190613815565b60405180910390f35b34801561019957600080fd5b506101a261068f565b6040516101af9190613830565b60405180910390f35b3480156101c457600080fd5b506101df60048036038101906101da9190612dbf565b610721565b6040516101ec91906137ae565b60405180910390f35b34801561020157600080fd5b5061021c60048036038101906102179190612cdd565b6107a6565b005b34801561022a57600080fd5b506102336108be565b6040516102409190613b52565b60405180910390f35b34801561025557600080fd5b50610270600480360381019061026b9190612bd7565b6108cb565b005b34801561027e57600080fd5b5061029960048036038101906102949190612d6b565b61092b565b6040516102a69190613b52565b60405180910390f35b3480156102bb57600080fd5b506102d660048036038101906102d19190612cdd565b6109f9565b6040516102e39190613b52565b60405180910390f35b3480156102f857600080fd5b50610313600480360381019061030e9190612bd7565b610a9e565b005b34801561032157600080fd5b5061033c60048036038101906103379190612dbf565b610abe565b6040516103499190613b52565b60405180910390f35b34801561035e57600080fd5b5061037960048036038101906103749190612dbf565b610b55565b60405161038691906137ae565b60405180910390f35b34801561039b57600080fd5b506103b660048036038101906103b19190612dbf565b610c07565b6040516103c39190613815565b60405180910390f35b6103e660048036038101906103e19190612dbf565b610c27565b6040516103f39190613815565b60405180910390f35b34801561040857600080fd5b50610423600480360381019061041e9190612b72565b610ec1565b6040516104309190613b52565b60405180910390f35b34801561044557600080fd5b5061044e610f79565b005b34801561045c57600080fd5b506104656110b6565b60405161047291906137ae565b60405180910390f35b34801561048757600080fd5b506104906110e0565b60405161049d9190613830565b60405180910390f35b3480156104b257600080fd5b506104cd60048036038101906104c89190612dbf565b611172565b6040516104da9190613815565b60405180910390f35b3480156104ef57600080fd5b5061050a60048036038101906105059190612ca1565b611275565b005b34801561051857600080fd5b50610533600480360381019061052e9190612dbf565b6113f6565b6040516105409190613b52565b60405180910390f35b34801561055557600080fd5b50610570600480360381019061056b9190612c26565b61140e565b005b34801561057e57600080fd5b5061059960048036038101906105949190612dbf565b611470565b6040516105a69190613830565b60405180910390f35b3480156105bb57600080fd5b506105d660048036038101906105d19190612b9b565b6115c2565b6040516105e39190613815565b60405180910390f35b3480156105f857600080fd5b50610613600480360381019061060e9190612b72565b611656565b005b60007f780e9d63000000000000000000000000000000000000000000000000000000007bffffffffffffffffffffffffffffffffffffffffffffffffffffffff1916827bffffffffffffffffffffffffffffffffffffffffffffffffffffffff19161480610688575061068782611802565b5b9050919050565b60606000805461069e90613e19565b80601f01602080910402602001604051908101604052809291908181526020018280546106ca90613e19565b80156107175780601f106106ec57610100808354040283529160200191610717565b820191906000526020600020905b8154815290600101906020018083116106fa57829003601f168201915b5050505050905090565b600061072c826118e4565b61076b576040517f08c379a000000000000000000000000000000000000000000000000000000000815260040161076290613a52565b60405180910390fd5b6004600083815260200190815260200160002060009054906101000a900473ffffffffffffffffffffffffffffffffffffffff169050919050565b60006107b182610b55565b90508073ffffffffffffffffffffffffffffffffffffffff168373ffffffffffffffffffffffffffffffffffffffff161415610822576040517f08c379a000000000000000000000000000000000000000000000000000000000815260040161081990613ad2565b60405180910390fd5b8073ffffffffffffffffffffffffffffffffffffffff16610841611950565b73ffffffffffffffffffffffffffffffffffffffff161480610870575061086f8161086a611950565b6115c2565b5b6108af576040517f08c379a00000000000000000000000000000000000000000000000000000000081526004016108a690613972565b60405180910390fd5b6108b98383611958565b505050565b6000600880549050905090565b6108dc6108d6611950565b82611a11565b61091b576040517f08c379a000000000000000000000000000000000000000000000000000000000815260040161091290613b12565b60405180910390fd5b610926838383611aef565b505050565b6000610937600b611d4b565b6000610943600b611d61565b905061094f3382611d6f565b82600c6000838152602001908152602001600020819055506000600d600083815260200190815260200160002060006101000a81548160ff02191690831515021790555061099d8185611d8d565b3373ffffffffffffffffffffffffffffffffffffffff167fc8ae715a96c20393c5095d019261baa06ba01ae0d8d74c58544ffc50eea7b4128285876040516109e793929190613b96565b60405180910390a28091505092915050565b6000610a0483610ec1565b8210610a45576040517f08c379a0000000000000000000000000000000000000000000000000000000008152600401610a3c90613872565b60405180910390fd5b600660008473ffffffffffffffffffffffffffffffffffffffff1673ffffffffffffffffffffffffffffffffffffffff168152602001908152602001600020600083815260200190815260200160002054905092915050565b610ab98383836040518060200160405280600081525061140e565b505050565b6000610ac86108be565b8210610b09576040517f08c379a0000000000000000000000000000000000000000000000000000000008152600401610b0090613b32565b60405180910390fd5b60088281548110610b43577f4e487b7100000000000000000000000000000000000000000000000000000000600052603260045260246000fd5b90600052602060002001549050919050565b6000806002600084815260200190815260200160002060009054906101000a900473ffffffffffffffffffffffffffffffffffffffff169050600073ffffffffffffffffffffffffffffffffffffffff168173ffffffffffffffffffffffffffffffffffffffff161415610bfe576040517f08c379a0000000000000000000000000000000000000000000000000000000008152600401610bf5906139b2565b60405180910390fd5b80915050919050565b600d6020528060005260406000206000915054906101000a900460ff1681565b60008082118015610c3d5750610c3c826118e4565b5b610c7c576040517f08c379a0000000000000000000000000000000000000000000000000000000008152600401610c7390613a32565b60405180910390fd5b6000610c8783610b55565b90508073ffffffffffffffffffffffffffffffffffffffff163373ffffffffffffffffffffffffffffffffffffffff1614158015610cf85750610cc86110b6565b73ffffffffffffffffffffffffffffffffffffffff163373ffffffffffffffffffffffffffffffffffffffff1614155b610d37576040517f08c379a0000000000000000000000000000000000000000000000000000000008152600401610d2e90613af2565b60405180910390fd5b6000600c600085815260200190815260200160002054905080341015610d92576040517f08c379a0000000000000000000000000000000000000000000000000000000008152600401610d8990613932565b60405180910390fd5b610dad82338660405180602001604052806000815250611e01565b8173ffffffffffffffffffffffffffffffffffffffff166108fc829081150290604051600060405180830381858888f19350505050158015610df3573d6000803e3d6000fd5b5080341115610e4f573373ffffffffffffffffffffffffffffffffffffffff166108fc8234610e229190613d2f565b9081150290604051600060405180830381858888f19350505050158015610e4d573d6000803e3d6000fd5b505b3373ffffffffffffffffffffffffffffffffffffffff168273ffffffffffffffffffffffffffffffffffffffff167f52018f43b2ef95a3ff5877e05af71c6767beeb06aa56995d0649ebe7c0c713d18634604051610eae929190613b6d565b60405180910390a3600192505050919050565b60008073ffffffffffffffffffffffffffffffffffffffff168273ffffffffffffffffffffffffffffffffffffffff161415610f32576040517f08c379a0000000000000000000000000000000000000000000000000000000008152600401610f2990613992565b60405180910390fd5b600360008373ffffffffffffffffffffffffffffffffffffffff1673ffffffffffffffffffffffffffffffffffffffff168152602001908152602001600020549050919050565b610f81611950565b73ffffffffffffffffffffffffffffffffffffffff16610f9f6110b6565b73ffffffffffffffffffffffffffffffffffffffff1614610ff5576040517f08c379a0000000000000000000000000000000000000000000000000000000008152600401610fec90613a72565b60405180910390fd5b600073ffffffffffffffffffffffffffffffffffffffff16600a60009054906101000a900473ffffffffffffffffffffffffffffffffffffffff1673ffffffffffffffffffffffffffffffffffffffff167f8be0079c531659141344cd1fd0a4f28419497f9722a3daafe3b4186f6b6457e060405160405180910390a36000600a60006101000a81548173ffffffffffffffffffffffffffffffffffffffff021916908373ffffffffffffffffffffffffffffffffffffffff160217905550565b6000600a60009054906101000a900473ffffffffffffffffffffffffffffffffffffffff16905090565b6060600180546110ef90613e19565b80601f016020809104026020016040519081016040528092919081815260200182805461111b90613e19565b80156111685780601f1061113d57610100808354040283529160200191611168565b820191906000526020600020905b81548152906001019060200180831161114b57829003601f168201915b5050505050905090565b6000813373ffffffffffffffffffffffffffffffffffffffff1661119582610b55565b73ffffffffffffffffffffffffffffffffffffffff16146111eb576040517f08c379a00000000000000000000000000000000000000000000000000000000081526004016111e290613852565b60405180910390fd5b60008311801561120057506111ff836118e4565b5b61123f576040517f08c379a000000000000000000000000000000000000000000000000000000000815260040161123690613a32565b60405180910390fd5b6001600d600085815260200190815260200160002060006101000a81548160ff0219169083151502179055506001915050919050565b61127d611950565b73ffffffffffffffffffffffffffffffffffffffff168273ffffffffffffffffffffffffffffffffffffffff1614156112eb576040517f08c379a00000000000000000000000000000000000000000000000000000000081526004016112e290613912565b60405180910390fd5b80600560006112f8611950565b73ffffffffffffffffffffffffffffffffffffffff1673ffffffffffffffffffffffffffffffffffffffff16815260200190815260200160002060008473ffffffffffffffffffffffffffffffffffffffff1673ffffffffffffffffffffffffffffffffffffffff16815260200190815260200160002060006101000a81548160ff0219169083151502179055508173ffffffffffffffffffffffffffffffffffffffff166113a5611950565b73ffffffffffffffffffffffffffffffffffffffff167f17307eab39ab6107e8899845ad3d59bd9653f200f220920489ca2b5937696c31836040516113ea9190613815565b60405180910390a35050565b600c6020528060005260406000206000915090505481565b61141f611419611950565b83611a11565b61145e576040517f08c379a000000000000000000000000000000000000000000000000000000000815260040161145590613b12565b60405180910390fd5b61146a84848484611e01565b50505050565b606061147b826118e4565b6114ba576040517f08c379a00000000000000000000000000000000000000000000000000000000081526004016114b190613a12565b60405180910390fd5b6000600e600084815260200190815260200160002080546114da90613e19565b80601f016020809104026020016040519081016040528092919081815260200182805461150690613e19565b80156115535780601f1061152857610100808354040283529160200191611553565b820191906000526020600020905b81548152906001019060200180831161153657829003601f168201915b505050505090506000611564611e5d565b905060008151141561157a5781925050506115bd565b6000825111156115af57808260405160200161159792919061378a565b604051602081830303815290604052925050506115bd565b6115b884611e74565b925050505b919050565b6000600560008473ffffffffffffffffffffffffffffffffffffffff1673ffffffffffffffffffffffffffffffffffffffff16815260200190815260200160002060008373ffffffffffffffffffffffffffffffffffffffff1673ffffffffffffffffffffffffffffffffffffffff16815260200190815260200160002060009054906101000a900460ff16905092915050565b61165e611950565b73ffffffffffffffffffffffffffffffffffffffff1661167c6110b6565b73ffffffffffffffffffffffffffffffffffffffff16146116d2576040517f08c379a00000000000000000000000000000000000000000000000000000000081526004016116c990613a72565b60405180910390fd5b600073ffffffffffffffffffffffffffffffffffffffff168173ffffffffffffffffffffffffffffffffffffffff161415611742576040517f08c379a0000000000000000000000000000000000000000000000000000000008152600401611739906138b2565b60405180910390fd5b8073ffffffffffffffffffffffffffffffffffffffff16600a60009054906101000a900473ffffffffffffffffffffffffffffffffffffffff1673ffffffffffffffffffffffffffffffffffffffff167f8be0079c531659141344cd1fd0a4f28419497f9722a3daafe3b4186f6b6457e060405160405180910390a380600a60006101000a81548173ffffffffffffffffffffffffffffffffffffffff021916908373ffffffffffffffffffffffffffffffffffffffff16021790555050565b60007f80ac58cd000000000000000000000000000000000000000000000000000000007bffffffffffffffffffffffffffffffffffffffffffffffffffffffff1916827bffffffffffffffffffffffffffffffffffffffffffffffffffffffff191614806118cd57507f5b5e139f000000000000000000000000000000000000000000000000000000007bffffffffffffffffffffffffffffffffffffffffffffffffffffffff1916827bffffffffffffffffffffffffffffffffffffffffffffffffffffffff1916145b806118dd57506118dc82611f1b565b5b9050919050565b60008073ffffffffffffffffffffffffffffffffffffffff166002600084815260200190815260200160002060009054906101000a900473ffffffffffffffffffffffffffffffffffffffff1673ffffffffffffffffffffffffffffffffffffffff1614159050919050565b600033905090565b816004600083815260200190815260200160002060006101000a81548173ffffffffffffffffffffffffffffffffffffffff021916908373ffffffffffffffffffffffffffffffffffffffff160217905550808273ffffffffffffffffffffffffffffffffffffffff166119cb83610b55565b73ffffffffffffffffffffffffffffffffffffffff167f8c5be1e5ebec7d5bd14f71427d1e84f3dd0314c0f7b2291e5b200ac8c7c3b92560405160405180910390a45050565b6000611a1c826118e4565b611a5b576040517f08c379a0000000000000000000000000000000000000000000000000000000008152600401611a5290613952565b60405180910390fd5b6000611a6683610b55565b90508073ffffffffffffffffffffffffffffffffffffffff168473ffffffffffffffffffffffffffffffffffffffff161480611ad557508373ffffffffffffffffffffffffffffffffffffffff16611abd84610721565b73ffffffffffffffffffffffffffffffffffffffff16145b80611ae65750611ae581856115c2565b5b91505092915050565b8273ffffffffffffffffffffffffffffffffffffffff16611b0f82610b55565b73ffffffffffffffffffffffffffffffffffffffff1614611b65576040517f08c379a0000000000000000000000000000000000000000000000000000000008152600401611b5c90613a92565b60405180910390fd5b600073ffffffffffffffffffffffffffffffffffffffff168273ffffffffffffffffffffffffffffffffffffffff161415611bd5576040517f08c379a0000000000000000000000000000000000000000000000000000000008152600401611bcc906138f2565b60405180910390fd5b611be0838383611f85565b611beb600082611958565b6001600360008573ffffffffffffffffffffffffffffffffffffffff1673ffffffffffffffffffffffffffffffffffffffff1681526020019081526020016000206000828254611c3b9190613d2f565b925050819055506001600360008473ffffffffffffffffffffffffffffffffffffffff1673ffffffffffffffffffffffffffffffffffffffff1681526020019081526020016000206000828254611c929190613ca8565b92505081905550816002600083815260200190815260200160002060006101000a81548173ffffffffffffffffffffffffffffffffffffffff021916908373ffffffffffffffffffffffffffffffffffffffff160217905550808273ffffffffffffffffffffffffffffffffffffffff168473ffffffffffffffffffffffffffffffffffffffff167fddf252ad1be2c89b69c2b068fc378daa952ba7f163c4a11628f55a4df523b3ef60405160405180910390a4505050565b6001816000016000828254019250508190555050565b600081600001549050919050565b611d89828260405180602001604052806000815250612099565b5050565b611d96826118e4565b611dd5576040517f08c379a0000000000000000000000000000000000000000000000000000000008152600401611dcc906139d2565b60405180910390fd5b80600e60008481526020019081526020016000209080519060200190611dfc929190612996565b505050565b611e0c848484611aef565b611e18848484846120f4565b611e57576040517f08c379a0000000000000000000000000000000000000000000000000000000008152600401611e4e90613892565b60405180910390fd5b50505050565b606060405180602001604052806000815250905090565b6060611e7f826118e4565b611ebe576040517f08c379a0000000000000000000000000000000000000000000000000000000008152600401611eb590613ab2565b60405180910390fd5b6000611ec8611e5d565b90506000815111611ee85760405180602001604052806000815250611f13565b80611ef28461228b565b604051602001611f0392919061378a565b6040516020818303038152906040525b915050919050565b60007f01ffc9a7000000000000000000000000000000000000000000000000000000007bffffffffffffffffffffffffffffffffffffffffffffffffffffffff1916827bffffffffffffffffffffffffffffffffffffffffffffffffffffffff1916149050919050565b611f90838383612438565b600073ffffffffffffffffffffffffffffffffffffffff168373ffffffffffffffffffffffffffffffffffffffff161415611fd357611fce8161243d565b612012565b8173ffffffffffffffffffffffffffffffffffffffff168373ffffffffffffffffffffffffffffffffffffffff1614612011576120108382612486565b5b5b600073ffffffffffffffffffffffffffffffffffffffff168273ffffffffffffffffffffffffffffffffffffffff16141561205557612050816125f3565b612094565b8273ffffffffffffffffffffffffffffffffffffffff168273ffffffffffffffffffffffffffffffffffffffff1614612093576120928282612736565b5b5b505050565b6120a383836127b5565b6120b060008484846120f4565b6120ef576040517f08c379a00000000000000000000000000000000000000000000000000000000081526004016120e690613892565b60405180910390fd5b505050565b60006121158473ffffffffffffffffffffffffffffffffffffffff16612983565b1561227e578373ffffffffffffffffffffffffffffffffffffffff1663150b7a0261213e611950565b8786866040518563ffffffff1660e01b815260040161216094939291906137c9565b602060405180830381600087803b15801561217a57600080fd5b505af19250505080156121ab57506040513d601f19601f820116820180604052508101906121a89190612d42565b60015b61222e573d80600081146121db576040519150601f19603f3d011682016040523d82523d6000602084013e6121e0565b606091505b50600081511415612226576040517f08c379a000000000000000000000000000000000000000000000000000000000815260040161221d90613892565b60405180910390fd5b805181602001fd5b63150b7a0260e01b7bffffffffffffffffffffffffffffffffffffffffffffffffffffffff1916817bffffffffffffffffffffffffffffffffffffffffffffffffffffffff191614915050612283565b600190505b949350505050565b606060008214156122d3576040518060400160405280600181526020017f30000000000000000000000000000000000000000000000000000000000000008152509050612433565b600082905060005b600082146123055780806122ee90613e4b565b915050600a826122fe9190613cfe565b91506122db565b60008167ffffffffffffffff811115612347577f4e487b7100000000000000000000000000000000000000000000000000000000600052604160045260246000fd5b6040519080825280601f01601f1916602001820160405280156123795781602001600182028036833780820191505090505b5090505b6000851461242c576001826123929190613d2f565b9150600a856123a19190613e94565b60306123ad9190613ca8565b60f81b8183815181106123e9577f4e487b7100000000000000000000000000000000000000000000000000000000600052603260045260246000fd5b60200101907effffffffffffffffffffffffffffffffffffffffffffffffffffffffffffff1916908160001a905350600a856124259190613cfe565b945061237d565b8093505050505b919050565b505050565b6008805490506009600083815260200190815260200160002081905550600881908060018154018082558091505060019003906000526020600020016000909190919091505550565b6000600161249384610ec1565b61249d9190613d2f565b9050600060076000848152602001908152602001600020549050818114612582576000600660008673ffffffffffffffffffffffffffffffffffffffff1673ffffffffffffffffffffffffffffffffffffffff168152602001908152602001600020600084815260200190815260200160002054905080600660008773ffffffffffffffffffffffffffffffffffffffff1673ffffffffffffffffffffffffffffffffffffffff168152602001908152602001600020600084815260200190815260200160002081905550816007600083815260200190815260200160002081905550505b6007600084815260200190815260200160002060009055600660008573ffffffffffffffffffffffffffffffffffffffff1673ffffffffffffffffffffffffffffffffffffffff16815260200190815260200160002060008381526020019081526020016000206000905550505050565b600060016008805490506126079190613d2f565b905060006009600084815260200190815260200160002054905060006008838154811061265d577f4e487b7100000000000000000000000000000000000000000000000000000000600052603260045260246000fd5b9060005260206000200154905080600883815481106126a5577f4e487b7100000000000000000000000000000000000000000000000000000000600052603260045260246000fd5b90600052602060002001819055508160096000838152602001908152602001600020819055506009600085815260200190815260200160002060009055600880548061271a577f4e487b7100000000000000000000000000000000000000000000000000000000600052603160045260246000fd5b6001900381819060005260206000200160009055905550505050565b600061274183610ec1565b905081600660008573ffffffffffffffffffffffffffffffffffffffff1673ffffffffffffffffffffffffffffffffffffffff168152602001908152602001600020600083815260200190815260200160002081905550806007600084815260200190815260200160002081905550505050565b600073ffffffffffffffffffffffffffffffffffffffff168273ffffffffffffffffffffffffffffffffffffffff161415612825576040517f08c379a000000000000000000000000000000000000000000000000000000000815260040161281c906139f2565b60405180910390fd5b61282e816118e4565b1561286e576040517f08c379a0000000000000000000000000000000000000000000000000000000008152600401612865906138d2565b60405180910390fd5b61287a60008383611f85565b6001600360008473ffffffffffffffffffffffffffffffffffffffff1673ffffffffffffffffffffffffffffffffffffffff16815260200190815260200160002060008282546128ca9190613ca8565b92505081905550816002600083815260200190815260200160002060006101000a81548173ffffffffffffffffffffffffffffffffffffffff021916908373ffffffffffffffffffffffffffffffffffffffff160217905550808273ffffffffffffffffffffffffffffffffffffffff16600073ffffffffffffffffffffffffffffffffffffffff167fddf252ad1be2c89b69c2b068fc378daa952ba7f163c4a11628f55a4df523b3ef60405160405180910390a45050565b600080823b905060008111915050919050565b8280546129a290613e19565b90600052602060002090601f0160209004810192826129c45760008555612a0b565b82601f106129dd57805160ff1916838001178555612a0b565b82800160010185558215612a0b579182015b82811115612a0a5782518255916020019190600101906129ef565b5b509050612a189190612a1c565b5090565b5b80821115612a35576000816000905550600101612a1d565b5090565b6000612a4c612a4784613c05565b613bd4565b905082815260208101848484011115612a6457600080fd5b612a6f848285613dd7565b509392505050565b6000612a8a612a8584613c35565b613bd4565b905082815260208101848484011115612aa257600080fd5b612aad848285613dd7565b509392505050565b600081359050612ac481613f92565b92915050565b600081359050612ad981613fa9565b92915050565b600081359050612aee81613fc0565b92915050565b600081519050612b0381613fc0565b92915050565b600082601f830112612b1a57600080fd5b8135612b2a848260208601612a39565b91505092915050565b600082601f830112612b4457600080fd5b8135612b54848260208601612a77565b91505092915050565b600081359050612b6c81613fd7565b92915050565b600060208284031215612b8457600080fd5b6000612b9284828501612ab5565b91505092915050565b60008060408385031215612bae57600080fd5b6000612bbc85828601612ab5565b9250506020612bcd85828601612ab5565b9150509250929050565b600080600060608486031215612bec57600080fd5b6000612bfa86828701612ab5565b9350506020612c0b86828701612ab5565b9250506040612c1c86828701612b5d565b9150509250925092565b60008060008060808587031215612c3c57600080fd5b6000612c4a87828801612ab5565b9450506020612c5b87828801612ab5565b9350506040612c6c87828801612b5d565b925050606085013567ffffffffffffffff811115612c8957600080fd5b612c9587828801612b09565b91505092959194509250565b60008060408385031215612cb457600080fd5b6000612cc285828601612ab5565b9250506020612cd385828601612aca565b9150509250929050565b60008060408385031215612cf057600080fd5b6000612cfe85828601612ab5565b9250506020612d0f85828601612b5d565b9150509250929050565b600060208284031215612d2b57600080fd5b6000612d3984828501612adf565b91505092915050565b600060208284031215612d5457600080fd5b6000612d6284828501612af4565b91505092915050565b60008060408385031215612d7e57600080fd5b600083013567ffffffffffffffff811115612d9857600080fd5b612da485828601612b33565b9250506020612db585828601612b5d565b9150509250929050565b600060208284031215612dd157600080fd5b6000612ddf84828501612b5d565b91505092915050565b612df181613d63565b82525050565b612e0081613d75565b82525050565b6000612e1182613c65565b612e1b8185613c7b565b9350612e2b818560208601613de6565b612e3481613f81565b840191505092915050565b6000612e4a82613c70565b612e548185613c8c565b9350612e64818560208601613de6565b612e6d81613f81565b840191505092915050565b6000612e8382613c70565b612e8d8185613c9d565b9350612e9d818560208601613de6565b80840191505092915050565b6000612eb6602683613c8c565b91507f50657453686f703a2063616c6c6572206973206e6f742074686520746f6b656e60008301527f206f776e657200000000000000000000000000000000000000000000000000006020830152604082019050919050565b6000612f1c602b83613c8c565b91507f455243373231456e756d657261626c653a206f776e657220696e646578206f7560008301527f74206f6620626f756e64730000000000000000000000000000000000000000006020830152604082019050919050565b6000612f82603283613c8c565b91507f4552433732313a207472616e7366657220746f206e6f6e20455243373231526560008301527f63656976657220696d706c656d656e74657200000000000000000000000000006020830152604082019050919050565b6000612fe8602683613c8c565b91507f4f776e61626c653a206e6577206f776e657220697320746865207a65726f206160008301527f64647265737300000000000000000000000000000000000000000000000000006020830152604082019050919050565b600061304e601c83613c8c565b91507f4552433732313a20746f6b656e20616c7265616479206d696e746564000000006000830152602082019050919050565b600061308e602483613c8c565b91507f4552433732313a207472616e7366657220746f20746865207a65726f2061646460008301527f72657373000000000000000000000000000000000000000000000000000000006020830152604082019050919050565b60006130f4601983613c8c565b91507f4552433732313a20617070726f766520746f2063616c6c6572000000000000006000830152602082019050919050565b6000613134602683613c8c565b91507f50657453686f703a20596f75206e65656420746f206861766520656e6f75676860008301527f20457468657200000000000000000000000000000000000000000000000000006020830152604082019050919050565b600061319a602c83613c8c565b91507f4552433732313a206f70657261746f7220717565727920666f72206e6f6e657860008301527f697374656e7420746f6b656e00000000000000000000000000000000000000006020830152604082019050919050565b6000613200603883613c8c565b91507f4552433732313a20617070726f76652063616c6c6572206973206e6f74206f7760008301527f6e6572206e6f7220617070726f76656420666f7220616c6c00000000000000006020830152604082019050919050565b6000613266602a83613c8c565b91507f4552433732313a2062616c616e636520717565727920666f7220746865207a6560008301527f726f2061646472657373000000000000000000000000000000000000000000006020830152604082019050919050565b60006132cc602983613c8c565b91507f4552433732313a206f776e657220717565727920666f72206e6f6e657869737460008301527f656e7420746f6b656e00000000000000000000000000000000000000000000006020830152604082019050919050565b6000613332602e83613c8c565b91507f45524337323155524953746f726167653a2055524920736574206f66206e6f6e60008301527f6578697374656e7420746f6b656e0000000000000000000000000000000000006020830152604082019050919050565b6000613398602083613c8c565b91507f4552433732313a206d696e7420746f20746865207a65726f20616464726573736000830152602082019050919050565b60006133d8603183613c8c565b91507f45524337323155524953746f726167653a2055524920717565727920666f722060008301527f6e6f6e6578697374656e7420746f6b656e0000000000000000000000000000006020830152604082019050919050565b600061343e601a83613c8c565b91507f50657453686f703a20746f6b656e4964206e6f742076616c69640000000000006000830152602082019050919050565b600061347e602c83613c8c565b91507f4552433732313a20617070726f76656420717565727920666f72206e6f6e657860008301527f697374656e7420746f6b656e00000000000000000000000000000000000000006020830152604082019050919050565b60006134e4602083613c8c565b91507f4f776e61626c653a2063616c6c6572206973206e6f7420746865206f776e65726000830152602082019050919050565b6000613524602983613c8c565b91507f4552433732313a207472616e73666572206f6620746f6b656e2074686174206960008301527f73206e6f74206f776e00000000000000000000000000000000000000000000006020830152604082019050919050565b600061358a602f83613c8c565b91507f4552433732314d657461646174613a2055524920717565727920666f72206e6f60008301527f6e6578697374656e7420746f6b656e00000000000000000000000000000000006020830152604082019050919050565b60006135f0602183613c8c565b91507f4552433732313a20617070726f76616c20746f2063757272656e74206f776e6560008301527f72000000000000000000000000000000000000000000000000000000000000006020830152604082019050919050565b6000613656604083613c8c565b91507f50657453686f703a20636f6e7472616374206f776e65722063616e277420627560008301527f79206f7220796f7520616c726561647920626f756768742074686973207065746020830152604082019050919050565b60006136bc603183613c8c565b91507f4552433732313a207472616e736665722063616c6c6572206973206e6f74206f60008301527f776e6572206e6f7220617070726f7665640000000000000000000000000000006020830152604082019050919050565b6000613722602c83613c8c565b91507f455243373231456e756d657261626c653a20676c6f62616c20696e646578206f60008301527f7574206f6620626f756e647300000000000000000000000000000000000000006020830152604082019050919050565b61378481613dcd565b82525050565b60006137968285612e78565b91506137a28284612e78565b91508190509392505050565b60006020820190506137c36000830184612de8565b92915050565b60006080820190506137de6000830187612de8565b6137eb6020830186612de8565b6137f8604083018561377b565b818103606083015261380a8184612e06565b905095945050505050565b600060208201905061382a6000830184612df7565b92915050565b6000602082019050818103600083015261384a8184612e3f565b905092915050565b6000602082019050818103600083015261386b81612ea9565b9050919050565b6000602082019050818103600083015261388b81612f0f565b9050919050565b600060208201905081810360008301526138ab81612f75565b9050919050565b600060208201905081810360008301526138cb81612fdb565b9050919050565b600060208201905081810360008301526138eb81613041565b9050919050565b6000602082019050818103600083015261390b81613081565b9050919050565b6000602082019050818103600083015261392b816130e7565b9050919050565b6000602082019050818103600083015261394b81613127565b9050919050565b6000602082019050818103600083015261396b8161318d565b9050919050565b6000602082019050818103600083015261398b816131f3565b9050919050565b600060208201905081810360008301526139ab81613259565b9050919050565b600060208201905081810360008301526139cb816132bf565b9050919050565b600060208201905081810360008301526139eb81613325565b9050919050565b60006020820190508181036000830152613a0b8161338b565b9050919050565b60006020820190508181036000830152613a2b816133cb565b9050919050565b60006020820190508181036000830152613a4b81613431565b9050919050565b60006020820190508181036000830152613a6b81613471565b9050919050565b60006020820190508181036000830152613a8b816134d7565b9050919050565b60006020820190508181036000830152613aab81613517565b9050919050565b60006020820190508181036000830152613acb8161357d565b9050919050565b60006020820190508181036000830152613aeb816135e3565b9050919050565b60006020820190508181036000830152613b0b81613649565b9050919050565b60006020820190508181036000830152613b2b816136af565b9050919050565b60006020820190508181036000830152613b4b81613715565b9050919050565b6000602082019050613b67600083018461377b565b92915050565b6000604082019050613b82600083018561377b565b613b8f602083018461377b565b9392505050565b6000606082019050613bab600083018661377b565b613bb8602083018561377b565b8181036040830152613bca8184612e3f565b9050949350505050565b6000604051905081810181811067ffffffffffffffff82111715613bfb57613bfa613f52565b5b8060405250919050565b600067ffffffffffffffff821115613c2057613c1f613f52565b5b601f19601f8301169050602081019050919050565b600067ffffffffffffffff821115613c5057613c4f613f52565b5b601f19601f8301169050602081019050919050565b600081519050919050565b600081519050919050565b600082825260208201905092915050565b600082825260208201905092915050565b600081905092915050565b6000613cb382613dcd565b9150613cbe83613dcd565b9250827fffffffffffffffffffffffffffffffffffffffffffffffffffffffffffffffff03821115613cf357613cf2613ec5565b5b828201905092915050565b6000613d0982613dcd565b9150613d1483613dcd565b925082613d2457613d23613ef4565b5b828204905092915050565b6000613d3a82613dcd565b9150613d4583613dcd565b925082821015613d5857613d57613ec5565b5b828203905092915050565b6000613d6e82613dad565b9050919050565b60008115159050919050565b60007fffffffff0000000000000000000000000000000000000000000000000000000082169050919050565b600073ffffffffffffffffffffffffffffffffffffffff82169050919050565b6000819050919050565b82818337600083830152505050565b60005b83811015613e04578082015181840152602081019050613de9565b83811115613e13576000848401525b50505050565b60006002820490506001821680613e3157607f821691505b60208210811415613e4557613e44613f23565b5b50919050565b6000613e5682613dcd565b91507fffffffffffffffffffffffffffffffffffffffffffffffffffffffffffffffff821415613e8957613e88613ec5565b5b600182019050919050565b6000613e9f82613dcd565b9150613eaa83613dcd565b925082613eba57613eb9613ef4565b5b828206905092915050565b7f4e487b7100000000000000000000000000000000000000000000000000000000600052601160045260246000fd5b7f4e487b7100000000000000000000000000000000000000000000000000000000600052601260045260246000fd5b7f4e487b7100000000000000000000000000000000000000000000000000000000600052602260045260246000fd5b7f4e487b7100000000000000000000000000000000000000000000000000000000600052604160045260246000fd5b6000601f19601f8301169050919050565b613f9b81613d63565b8114613fa657600080fd5b50565b613fb281613d75565b8114613fbd57600080fd5b50565b613fc981613d81565b8114613fd457600080fd5b50565b613fe081613dcd565b8114613feb57600080fd5b5056fea264697066735822122065fe5770f2379d33901b9dc832325428c20d55690c055aeef4cb7ee39c6492da64736f6c63430008000033",
  "immutableReferences": {},
  "source": "// SPDX-License-Identifier: MIT\npragma solidity ^0.8.0;\n\nimport \"@openzeppelin/contracts/token/ERC721/extensions/ERC721Enumerable.sol\";\nimport \"@openzeppelin/contracts/utils/Counters.sol\";\nimport \"@openzeppelin/contracts/access/Ownable.sol\";\n\ncontract PetShop is ERC721Enumerable, Ownable {\n    using Counters for Counters.Counter;\n    Counters.Counter private _tokenIds;\n\n    using Strings for uint256;\n\n    // mapping the TokenId and price\n    mapping(uint256 => uint256) public petsPrice;\n\n    // Boolean values either pets are on sale or not\n    mapping(uint256 => bool) public petsOnSale;\n\n    // Optional mapping for token URIs\n    mapping(uint256 => string) private _tokenURIs;\n\n    event PetCreated(\n        address indexed owner,\n        uint256 tokenId,\n        uint256 price,\n        string tokenURI\n    );\n\n    event PetPurchase(\n        address indexed prevOwner,\n        address indexed newOwner,\n        uint256 tokenId,\n        uint256 price\n    );\n\n    modifier onlyTokenOwner(uint256 tokenId) {\n        require(\n            ownerOf(tokenId) == msg.sender,\n            \"PetShop: caller is not the token owner\"\n        );\n        _;\n    }\n\n    constructor() ERC721(\"PetShopNFT\", \"PNFT\") {}\n\n    function tokenURI(uint256 tokenId)\n        public\n        view\n        virtual\n        override\n        returns (string memory)\n    {\n        require(\n            _exists(tokenId),\n            \"ERC721URIStorage: URI query for nonexistent token\"\n        );\n\n        string memory _tokenURI = _tokenURIs[tokenId];\n        string memory base = _baseURI();\n\n        // If there is no base URI, return the token URI.\n        if (bytes(base).length == 0) {\n            return _tokenURI;\n        }\n        // If both are set, concatenate the baseURI and tokenURI (via abi.encodePacked).\n        if (bytes(_tokenURI).length > 0) {\n            return string(abi.encodePacked(base, _tokenURI));\n        }\n\n        return super.tokenURI(tokenId);\n    }\n\n    /**\n     * @dev Sets `_tokenURI` as the tokenURI of `tokenId`.\n     *\n     * Requirements:\n     *\n     * - `tokenId` must exist.\n     */\n    function _setTokenURI(uint256 tokenId, string memory _tokenURI)\n        internal\n        virtual\n    {\n        require(\n            _exists(tokenId),\n            \"ERC721URIStorage: URI set of nonexistent token\"\n        );\n        _tokenURIs[tokenId] = _tokenURI;\n    }\n\n    function mintPetNft(string memory _tokenURI, uint256 _price)\n        external\n        returns (uint256)\n    {\n        _tokenIds.increment();\n        uint256 newItemId = _tokenIds.current();\n        _safeMint(msg.sender, newItemId);\n        petsPrice[newItemId] = _price;\n        petsOnSale[newItemId] = false;\n        _setTokenURI(newItemId, _tokenURI);\n        emit PetCreated(msg.sender, newItemId, _price, _tokenURI);\n        return newItemId;\n    }\n\n    function putPetOnSale(uint256 _tokenId)\n        external\n        onlyTokenOwner(_tokenId)\n        returns (bool)\n    {\n        require(\n            _tokenId > 0 && _exists(_tokenId),\n            \"PetShop: tokenId not valid\"\n        );\n        petsOnSale[_tokenId] = true;\n        return true;\n    }\n\n    function buyPetNft(uint256 _tokenId) public payable returns (bool) {\n        require(\n            _tokenId > 0 && _exists(_tokenId),\n            \"PetShop: tokenId not valid\"\n        );\n        address ownerAddress = ownerOf(_tokenId);\n        require(\n            msg.sender != ownerAddress && msg.sender != owner(),\n            \"PetShop: contract owner can't buy or you already bought this pet\"\n        );\n        uint256 petCost = petsPrice[_tokenId];\n        require(msg.value >= petCost, \"PetShop: You need to have enough Ether\");\n        _safeTransfer(ownerAddress, msg.sender, _tokenId, \"\");\n        payable(ownerAddress).transfer(petCost);\n        if (msg.value > petCost) {\n            payable(msg.sender).transfer(msg.value - petCost);\n        }\n        emit PetPurchase(ownerAddress, msg.sender, _tokenId, msg.value);\n        return true;\n    }\n}\n",
  "sourcePath": "/home/asadullah/pet-shop/contracts/PetShop.sol",
  "compiler": {
    "name": "solc",
    "version": "0.8.0+commit.c7dfd78e.Emscripten.clang"
  },
  "schemaVersion": "3.4.0",
  "updatedAt": "2021-07-01T05:40:37.915Z",
  "networkType": "ethereum",
  "devdoc": {
    "kind": "dev",
    "methods": {
      "approve(address,uint256)": {
        "details": "See {IERC721-approve}."
      },
      "balanceOf(address)": {
        "details": "See {IERC721-balanceOf}."
      },
      "getApproved(uint256)": {
        "details": "See {IERC721-getApproved}."
      },
      "isApprovedForAll(address,address)": {
        "details": "See {IERC721-isApprovedForAll}."
      },
      "name()": {
        "details": "See {IERC721Metadata-name}."
      },
      "owner()": {
        "details": "Returns the address of the current owner."
      },
      "ownerOf(uint256)": {
        "details": "See {IERC721-ownerOf}."
      },
      "renounceOwnership()": {
        "details": "Leaves the contract without owner. It will not be possible to call `onlyOwner` functions anymore. Can only be called by the current owner. NOTE: Renouncing ownership will leave the contract without an owner, thereby removing any functionality that is only available to the owner."
      },
      "safeTransferFrom(address,address,uint256)": {
        "details": "See {IERC721-safeTransferFrom}."
      },
      "safeTransferFrom(address,address,uint256,bytes)": {
        "details": "See {IERC721-safeTransferFrom}."
      },
      "setApprovalForAll(address,bool)": {
        "details": "See {IERC721-setApprovalForAll}."
      },
      "supportsInterface(bytes4)": {
        "details": "See {IERC165-supportsInterface}."
      },
      "symbol()": {
        "details": "See {IERC721Metadata-symbol}."
      },
      "tokenByIndex(uint256)": {
        "details": "See {IERC721Enumerable-tokenByIndex}."
      },
      "tokenOfOwnerByIndex(address,uint256)": {
        "details": "See {IERC721Enumerable-tokenOfOwnerByIndex}."
      },
      "tokenURI(uint256)": {
        "details": "See {IERC721Metadata-tokenURI}."
      },
      "totalSupply()": {
        "details": "See {IERC721Enumerable-totalSupply}."
      },
      "transferFrom(address,address,uint256)": {
        "details": "See {IERC721-transferFrom}."
      },
      "transferOwnership(address)": {
        "details": "Transfers ownership of the contract to a new account (`newOwner`). Can only be called by the current owner."
      }
    },
    "version": 1
  },
  "userdoc": {
    "kind": "user",
    "methods": {},
    "version": 1
  }
}