{
  "contractName": "PetShop",
  "abi": [
    {
      "inputs": [],
      "stateMutability": "nonpayable",
      "type": "constructor"
    },
    {
      "anonymous": false,
      "inputs": [
        {
          "indexed": true,
          "internalType": "address",
          "name": "owner",
          "type": "address"
        },
        {
          "indexed": true,
          "internalType": "address",
          "name": "approved",
          "type": "address"
        },
        {
          "indexed": true,
          "internalType": "uint256",
          "name": "tokenId",
          "type": "uint256"
        }
      ],
      "name": "Approval",
      "type": "event"
    },
    {
      "anonymous": false,
      "inputs": [
        {
          "indexed": true,
          "internalType": "address",
          "name": "owner",
          "type": "address"
        },
        {
          "indexed": true,
          "internalType": "address",
          "name": "operator",
          "type": "address"
        },
        {
          "indexed": false,
          "internalType": "bool",
          "name": "approved",
          "type": "bool"
        }
      ],
      "name": "ApprovalForAll",
      "type": "event"
    },
    {
      "anonymous": false,
      "inputs": [
        {
          "indexed": true,
          "internalType": "address",
          "name": "previousOwner",
          "type": "address"
        },
        {
          "indexed": true,
          "internalType": "address",
          "name": "newOwner",
          "type": "address"
        }
      ],
      "name": "OwnershipTransferred",
      "type": "event"
    },
    {
      "anonymous": false,
      "inputs": [
        {
          "indexed": true,
          "internalType": "address",
          "name": "from",
          "type": "address"
        },
        {
          "indexed": true,
          "internalType": "address",
          "name": "to",
          "type": "address"
        },
        {
          "indexed": true,
          "internalType": "uint256",
          "name": "tokenId",
          "type": "uint256"
        }
      ],
      "name": "Transfer",
      "type": "event"
    },
    {
      "inputs": [
        {
          "internalType": "address",
          "name": "to",
          "type": "address"
        },
        {
          "internalType": "uint256",
          "name": "tokenId",
          "type": "uint256"
        }
      ],
      "name": "approve",
      "outputs": [],
      "stateMutability": "nonpayable",
      "type": "function"
    },
    {
      "inputs": [
        {
          "internalType": "address",
          "name": "owner",
          "type": "address"
        }
      ],
      "name": "balanceOf",
      "outputs": [
        {
          "internalType": "uint256",
          "name": "",
          "type": "uint256"
        }
      ],
      "stateMutability": "view",
      "type": "function",
      "constant": true
    },
    {
      "inputs": [
        {
          "internalType": "uint256",
          "name": "tokenId",
          "type": "uint256"
        }
      ],
      "name": "getApproved",
      "outputs": [
        {
          "internalType": "address",
          "name": "",
          "type": "address"
        }
      ],
      "stateMutability": "view",
      "type": "function",
      "constant": true
    },
    {
      "inputs": [
        {
          "internalType": "address",
          "name": "owner",
          "type": "address"
        },
        {
          "internalType": "address",
          "name": "operator",
          "type": "address"
        }
      ],
      "name": "isApprovedForAll",
      "outputs": [
        {
          "internalType": "bool",
          "name": "",
          "type": "bool"
        }
      ],
      "stateMutability": "view",
      "type": "function",
      "constant": true
    },
    {
      "inputs": [],
      "name": "name",
      "outputs": [
        {
          "internalType": "string",
          "name": "",
          "type": "string"
        }
      ],
      "stateMutability": "view",
      "type": "function",
      "constant": true
    },
    {
      "inputs": [],
      "name": "owner",
      "outputs": [
        {
          "internalType": "address",
          "name": "",
          "type": "address"
        }
      ],
      "stateMutability": "view",
      "type": "function",
      "constant": true
    },
    {
      "inputs": [
        {
          "internalType": "uint256",
          "name": "tokenId",
          "type": "uint256"
        }
      ],
      "name": "ownerOf",
      "outputs": [
        {
          "internalType": "address",
          "name": "",
          "type": "address"
        }
      ],
      "stateMutability": "view",
      "type": "function",
      "constant": true
    },
    {
      "inputs": [
        {
          "internalType": "uint256",
          "name": "",
          "type": "uint256"
        }
      ],
      "name": "petsForSale",
      "outputs": [
        {
          "internalType": "uint256",
          "name": "",
          "type": "uint256"
        }
      ],
      "stateMutability": "view",
      "type": "function",
      "constant": true
    },
    {
      "inputs": [],
      "name": "renounceOwnership",
      "outputs": [],
      "stateMutability": "nonpayable",
      "type": "function"
    },
    {
      "inputs": [
        {
          "internalType": "address",
          "name": "from",
          "type": "address"
        },
        {
          "internalType": "address",
          "name": "to",
          "type": "address"
        },
        {
          "internalType": "uint256",
          "name": "tokenId",
          "type": "uint256"
        }
      ],
      "name": "safeTransferFrom",
      "outputs": [],
      "stateMutability": "nonpayable",
      "type": "function"
    },
    {
      "inputs": [
        {
          "internalType": "address",
          "name": "from",
          "type": "address"
        },
        {
          "internalType": "address",
          "name": "to",
          "type": "address"
        },
        {
          "internalType": "uint256",
          "name": "tokenId",
          "type": "uint256"
        },
        {
          "internalType": "bytes",
          "name": "_data",
          "type": "bytes"
        }
      ],
      "name": "safeTransferFrom",
      "outputs": [],
      "stateMutability": "nonpayable",
      "type": "function"
    },
    {
      "inputs": [
        {
          "internalType": "address",
          "name": "operator",
          "type": "address"
        },
        {
          "internalType": "bool",
          "name": "approved",
          "type": "bool"
        }
      ],
      "name": "setApprovalForAll",
      "outputs": [],
      "stateMutability": "nonpayable",
      "type": "function"
    },
    {
      "inputs": [
        {
          "internalType": "bytes4",
          "name": "interfaceId",
          "type": "bytes4"
        }
      ],
      "name": "supportsInterface",
      "outputs": [
        {
          "internalType": "bool",
          "name": "",
          "type": "bool"
        }
      ],
      "stateMutability": "view",
      "type": "function",
      "constant": true
    },
    {
      "inputs": [],
      "name": "symbol",
      "outputs": [
        {
          "internalType": "string",
          "name": "",
          "type": "string"
        }
      ],
      "stateMutability": "view",
      "type": "function",
      "constant": true
    },
    {
      "inputs": [
        {
          "internalType": "uint256",
          "name": "index",
          "type": "uint256"
        }
      ],
      "name": "tokenByIndex",
      "outputs": [
        {
          "internalType": "uint256",
          "name": "",
          "type": "uint256"
        }
      ],
      "stateMutability": "view",
      "type": "function",
      "constant": true
    },
    {
      "inputs": [
        {
          "internalType": "address",
          "name": "owner",
          "type": "address"
        },
        {
          "internalType": "uint256",
          "name": "index",
          "type": "uint256"
        }
      ],
      "name": "tokenOfOwnerByIndex",
      "outputs": [
        {
          "internalType": "uint256",
          "name": "",
          "type": "uint256"
        }
      ],
      "stateMutability": "view",
      "type": "function",
      "constant": true
    },
    {
      "inputs": [],
      "name": "totalSupply",
      "outputs": [
        {
          "internalType": "uint256",
          "name": "",
          "type": "uint256"
        }
      ],
      "stateMutability": "view",
      "type": "function",
      "constant": true
    },
    {
      "inputs": [
        {
          "internalType": "address",
          "name": "from",
          "type": "address"
        },
        {
          "internalType": "address",
          "name": "to",
          "type": "address"
        },
        {
          "internalType": "uint256",
          "name": "tokenId",
          "type": "uint256"
        }
      ],
      "name": "transferFrom",
      "outputs": [],
      "stateMutability": "nonpayable",
      "type": "function"
    },
    {
      "inputs": [
        {
          "internalType": "address",
          "name": "newOwner",
          "type": "address"
        }
      ],
      "name": "transferOwnership",
      "outputs": [],
      "stateMutability": "nonpayable",
      "type": "function"
    },
    {
      "inputs": [
        {
          "internalType": "uint256",
          "name": "tokenId",
          "type": "uint256"
        }
      ],
      "name": "tokenURI",
      "outputs": [
        {
          "internalType": "string",
          "name": "",
          "type": "string"
        }
      ],
      "stateMutability": "view",
      "type": "function",
      "constant": true
    },
    {
      "inputs": [
        {
          "internalType": "string",
          "name": "_tokenURI",
          "type": "string"
        },
        {
          "internalType": "uint256",
          "name": "_price",
          "type": "uint256"
        }
      ],
      "name": "mintPetNft",
      "outputs": [
        {
          "internalType": "uint256",
          "name": "",
          "type": "uint256"
        }
      ],
      "stateMutability": "nonpayable",
      "type": "function"
    },
    {
      "inputs": [
        {
          "internalType": "uint256",
          "name": "_tokenId",
          "type": "uint256"
        }
      ],
      "name": "buyPetNft",
      "outputs": [],
      "stateMutability": "payable",
      "type": "function",
      "payable": true
    }
  ],
  "bytecode": "0x60806040523480156200001157600080fd5b506040518060400160405280600a81526020017f50657453686f704e4654000000000000000000000000000000000000000000008152506040518060400160405280600481526020017f504e46540000000000000000000000000000000000000000000000000000000081525081600090805190602001906200009692919062000171565b508060019080519060200190620000af92919062000171565b5050506000620000c46200016960201b60201c565b905080600a60006101000a81548173ffffffffffffffffffffffffffffffffffffffff021916908373ffffffffffffffffffffffffffffffffffffffff1602179055508073ffffffffffffffffffffffffffffffffffffffff16600073ffffffffffffffffffffffffffffffffffffffff167f8be0079c531659141344cd1fd0a4f28419497f9722a3daafe3b4186f6b6457e060405160405180910390a35062000286565b600033905090565b8280546200017f9062000221565b90600052602060002090601f016020900481019282620001a35760008555620001ef565b82601f10620001be57805160ff1916838001178555620001ef565b82800160010185558215620001ef579182015b82811115620001ee578251825591602001919060010190620001d1565b5b509050620001fe919062000202565b5090565b5b808211156200021d57600081600090555060010162000203565b5090565b600060028204905060018216806200023a57607f821691505b6020821081141562000251576200025062000257565b5b50919050565b7f4e487b7100000000000000000000000000000000000000000000000000000000600052602260045260246000fd5b613a8080620002966000396000f3fe6080604052600436106101355760003560e01c80636da4ae2f116100ab57806395d89b411161006f57806395d89b4114610451578063a22cb4651461047c578063b88d4fde146104a5578063c87b56dd146104ce578063e985e9c51461050b578063f2fde38b1461054857610135565b80636da4ae2f1461037957806370a0823114610395578063715018a6146103d25780637e328cbb146103e95780638da5cb5b1461042657610135565b806323b872dd116100fd57806323b872dd146102335780632aba97d01461025c5780632f745c591461029957806342842e0e146102d65780634f6ccce7146102ff5780636352211e1461033c57610135565b806301ffc9a71461013a57806306fdde0314610177578063081812fc146101a2578063095ea7b3146101df57806318160ddd14610208575b600080fd5b34801561014657600080fd5b50610161600480360381019061015c919061296e565b610571565b60405161016e9190613338565b60405180910390f35b34801561018357600080fd5b5061018c6105eb565b6040516101999190613353565b60405180910390f35b3480156101ae57600080fd5b506101c960048036038101906101c49190612a14565b61067d565b6040516101d691906132d1565b60405180910390f35b3480156101eb57600080fd5b5061020660048036038101906102019190612932565b610702565b005b34801561021457600080fd5b5061021d61081a565b60405161022a9190613615565b60405180910390f35b34801561023f57600080fd5b5061025a6004803603810190610255919061282c565b610827565b005b34801561026857600080fd5b50610283600480360381019061027e91906129c0565b610887565b6040516102909190613615565b60405180910390f35b3480156102a557600080fd5b506102c060048036038101906102bb9190612932565b61095a565b6040516102cd9190613615565b60405180910390f35b3480156102e257600080fd5b506102fd60048036038101906102f8919061282c565b6109ff565b005b34801561030b57600080fd5b5061032660048036038101906103219190612a14565b610a1f565b6040516103339190613615565b60405180910390f35b34801561034857600080fd5b50610363600480360381019061035e9190612a14565b610ab6565b60405161037091906132d1565b60405180910390f35b610393600480360381019061038e9190612a14565b610b68565b005b3480156103a157600080fd5b506103bc60048036038101906103b791906127c7565b610c92565b6040516103c99190613615565b60405180910390f35b3480156103de57600080fd5b506103e7610d4a565b005b3480156103f557600080fd5b50610410600480360381019061040b9190612a14565b610e87565b60405161041d9190613615565b60405180910390f35b34801561043257600080fd5b5061043b610e9f565b60405161044891906132d1565b60405180910390f35b34801561045d57600080fd5b50610466610ec9565b6040516104739190613353565b60405180910390f35b34801561048857600080fd5b506104a3600480360381019061049e91906128f6565b610f5b565b005b3480156104b157600080fd5b506104cc60048036038101906104c7919061287b565b6110dc565b005b3480156104da57600080fd5b506104f560048036038101906104f09190612a14565b61113e565b6040516105029190613353565b60405180910390f35b34801561051757600080fd5b50610532600480360381019061052d91906127f0565b611290565b60405161053f9190613338565b60405180910390f35b34801561055457600080fd5b5061056f600480360381019061056a91906127c7565b611324565b005b60007f780e9d63000000000000000000000000000000000000000000000000000000007bffffffffffffffffffffffffffffffffffffffffffffffffffffffff1916827bffffffffffffffffffffffffffffffffffffffffffffffffffffffff191614806105e457506105e3826114d0565b5b9050919050565b6060600080546105fa90613875565b80601f016020809104026020016040519081016040528092919081815260200182805461062690613875565b80156106735780601f1061064857610100808354040283529160200191610673565b820191906000526020600020905b81548152906001019060200180831161065657829003601f168201915b5050505050905090565b6000610688826115b2565b6106c7576040517f08c379a00000000000000000000000000000000000000000000000000000000081526004016106be90613515565b60405180910390fd5b6004600083815260200190815260200160002060009054906101000a900473ffffffffffffffffffffffffffffffffffffffff169050919050565b600061070d82610ab6565b90508073ffffffffffffffffffffffffffffffffffffffff168373ffffffffffffffffffffffffffffffffffffffff16141561077e576040517f08c379a0000000000000000000000000000000000000000000000000000000008152600401610775906135b5565b60405180910390fd5b8073ffffffffffffffffffffffffffffffffffffffff1661079d61161e565b73ffffffffffffffffffffffffffffffffffffffff1614806107cc57506107cb816107c661161e565b611290565b5b61080b576040517f08c379a000000000000000000000000000000000000000000000000000000000815260040161080290613455565b60405180910390fd5b6108158383611626565b505050565b6000600880549050905090565b61083861083261161e565b826116df565b610877576040517f08c379a000000000000000000000000000000000000000000000000000000000815260040161086e906135d5565b60405180910390fd5b6108828383836117bd565b505050565b600061089161161e565b73ffffffffffffffffffffffffffffffffffffffff166108af610e9f565b73ffffffffffffffffffffffffffffffffffffffff1614610905576040517f08c379a00000000000000000000000000000000000000000000000000000000081526004016108fc90613535565b60405180910390fd5b61090f600b611a19565b600061091b600b611a2f565b905061092e610928610e9f565b82611a3d565b82600c6000838152602001908152602001600020819055506109508185611c0b565b8091505092915050565b600061096583610c92565b82106109a6576040517f08c379a000000000000000000000000000000000000000000000000000000000815260040161099d90613375565b60405180910390fd5b600660008473ffffffffffffffffffffffffffffffffffffffff1673ffffffffffffffffffffffffffffffffffffffff168152602001908152602001600020600083815260200190815260200160002054905092915050565b610a1a838383604051806020016040528060008152506110dc565b505050565b6000610a2961081a565b8210610a6a576040517f08c379a0000000000000000000000000000000000000000000000000000000008152600401610a61906135f5565b60405180910390fd5b60088281548110610aa4577f4e487b7100000000000000000000000000000000000000000000000000000000600052603260045260246000fd5b90600052602060002001549050919050565b6000806002600084815260200190815260200160002060009054906101000a900473ffffffffffffffffffffffffffffffffffffffff169050600073ffffffffffffffffffffffffffffffffffffffff168173ffffffffffffffffffffffffffffffffffffffff161415610b5f576040517f08c379a0000000000000000000000000000000000000000000000000000000008152600401610b5690613495565b60405180910390fd5b80915050919050565b6000600c60008381526020019081526020016000205490506000610b8b83610ab6565b905081341015610bd0576040517f08c379a0000000000000000000000000000000000000000000000000000000008152600401610bc790613595565b60405180910390fd5b610beb81338560405180602001604052806000815250611c7f565b8073ffffffffffffffffffffffffffffffffffffffff166108fc839081150290604051600060405180830381858888f19350505050158015610c31573d6000803e3d6000fd5b5081341115610c8d573373ffffffffffffffffffffffffffffffffffffffff166108fc8334610c60919061378b565b9081150290604051600060405180830381858888f19350505050158015610c8b573d6000803e3d6000fd5b505b505050565b60008073ffffffffffffffffffffffffffffffffffffffff168273ffffffffffffffffffffffffffffffffffffffff161415610d03576040517f08c379a0000000000000000000000000000000000000000000000000000000008152600401610cfa90613475565b60405180910390fd5b600360008373ffffffffffffffffffffffffffffffffffffffff1673ffffffffffffffffffffffffffffffffffffffff168152602001908152602001600020549050919050565b610d5261161e565b73ffffffffffffffffffffffffffffffffffffffff16610d70610e9f565b73ffffffffffffffffffffffffffffffffffffffff1614610dc6576040517f08c379a0000000000000000000000000000000000000000000000000000000008152600401610dbd90613535565b60405180910390fd5b600073ffffffffffffffffffffffffffffffffffffffff16600a60009054906101000a900473ffffffffffffffffffffffffffffffffffffffff1673ffffffffffffffffffffffffffffffffffffffff167f8be0079c531659141344cd1fd0a4f28419497f9722a3daafe3b4186f6b6457e060405160405180910390a36000600a60006101000a81548173ffffffffffffffffffffffffffffffffffffffff021916908373ffffffffffffffffffffffffffffffffffffffff160217905550565b600c6020528060005260406000206000915090505481565b6000600a60009054906101000a900473ffffffffffffffffffffffffffffffffffffffff16905090565b606060018054610ed890613875565b80601f0160208091040260200160405190810160405280929190818152602001828054610f0490613875565b8015610f515780601f10610f2657610100808354040283529160200191610f51565b820191906000526020600020905b815481529060010190602001808311610f3457829003601f168201915b5050505050905090565b610f6361161e565b73ffffffffffffffffffffffffffffffffffffffff168273ffffffffffffffffffffffffffffffffffffffff161415610fd1576040517f08c379a0000000000000000000000000000000000000000000000000000000008152600401610fc890613415565b60405180910390fd5b8060056000610fde61161e565b73ffffffffffffffffffffffffffffffffffffffff1673ffffffffffffffffffffffffffffffffffffffff16815260200190815260200160002060008473ffffffffffffffffffffffffffffffffffffffff1673ffffffffffffffffffffffffffffffffffffffff16815260200190815260200160002060006101000a81548160ff0219169083151502179055508173ffffffffffffffffffffffffffffffffffffffff1661108b61161e565b73ffffffffffffffffffffffffffffffffffffffff167f17307eab39ab6107e8899845ad3d59bd9653f200f220920489ca2b5937696c31836040516110d09190613338565b60405180910390a35050565b6110ed6110e761161e565b836116df565b61112c576040517f08c379a0000000000000000000000000000000000000000000000000000000008152600401611123906135d5565b60405180910390fd5b61113884848484611c7f565b50505050565b6060611149826115b2565b611188576040517f08c379a000000000000000000000000000000000000000000000000000000000815260040161117f906134f5565b60405180910390fd5b6000600d600084815260200190815260200160002080546111a890613875565b80601f01602080910402602001604051908101604052809291908181526020018280546111d490613875565b80156112215780601f106111f657610100808354040283529160200191611221565b820191906000526020600020905b81548152906001019060200180831161120457829003601f168201915b505050505090506000611232611cdb565b905060008151141561124857819250505061128b565b60008251111561127d5780826040516020016112659291906132ad565b6040516020818303038152906040529250505061128b565b61128684611cf2565b925050505b919050565b6000600560008473ffffffffffffffffffffffffffffffffffffffff1673ffffffffffffffffffffffffffffffffffffffff16815260200190815260200160002060008373ffffffffffffffffffffffffffffffffffffffff1673ffffffffffffffffffffffffffffffffffffffff16815260200190815260200160002060009054906101000a900460ff16905092915050565b61132c61161e565b73ffffffffffffffffffffffffffffffffffffffff1661134a610e9f565b73ffffffffffffffffffffffffffffffffffffffff16146113a0576040517f08c379a000000000000000000000000000000000000000000000000000000000815260040161139790613535565b60405180910390fd5b600073ffffffffffffffffffffffffffffffffffffffff168173ffffffffffffffffffffffffffffffffffffffff161415611410576040517f08c379a0000000000000000000000000000000000000000000000000000000008152600401611407906133b5565b60405180910390fd5b8073ffffffffffffffffffffffffffffffffffffffff16600a60009054906101000a900473ffffffffffffffffffffffffffffffffffffffff1673ffffffffffffffffffffffffffffffffffffffff167f8be0079c531659141344cd1fd0a4f28419497f9722a3daafe3b4186f6b6457e060405160405180910390a380600a60006101000a81548173ffffffffffffffffffffffffffffffffffffffff021916908373ffffffffffffffffffffffffffffffffffffffff16021790555050565b60007f80ac58cd000000000000000000000000000000000000000000000000000000007bffffffffffffffffffffffffffffffffffffffffffffffffffffffff1916827bffffffffffffffffffffffffffffffffffffffffffffffffffffffff1916148061159b57507f5b5e139f000000000000000000000000000000000000000000000000000000007bffffffffffffffffffffffffffffffffffffffffffffffffffffffff1916827bffffffffffffffffffffffffffffffffffffffffffffffffffffffff1916145b806115ab57506115aa82611d99565b5b9050919050565b60008073ffffffffffffffffffffffffffffffffffffffff166002600084815260200190815260200160002060009054906101000a900473ffffffffffffffffffffffffffffffffffffffff1673ffffffffffffffffffffffffffffffffffffffff1614159050919050565b600033905090565b816004600083815260200190815260200160002060006101000a81548173ffffffffffffffffffffffffffffffffffffffff021916908373ffffffffffffffffffffffffffffffffffffffff160217905550808273ffffffffffffffffffffffffffffffffffffffff1661169983610ab6565b73ffffffffffffffffffffffffffffffffffffffff167f8c5be1e5ebec7d5bd14f71427d1e84f3dd0314c0f7b2291e5b200ac8c7c3b92560405160405180910390a45050565b60006116ea826115b2565b611729576040517f08c379a000000000000000000000000000000000000000000000000000000000815260040161172090613435565b60405180910390fd5b600061173483610ab6565b90508073ffffffffffffffffffffffffffffffffffffffff168473ffffffffffffffffffffffffffffffffffffffff1614806117a357508373ffffffffffffffffffffffffffffffffffffffff1661178b8461067d565b73ffffffffffffffffffffffffffffffffffffffff16145b806117b457506117b38185611290565b5b91505092915050565b8273ffffffffffffffffffffffffffffffffffffffff166117dd82610ab6565b73ffffffffffffffffffffffffffffffffffffffff1614611833576040517f08c379a000000000000000000000000000000000000000000000000000000000815260040161182a90613555565b60405180910390fd5b600073ffffffffffffffffffffffffffffffffffffffff168273ffffffffffffffffffffffffffffffffffffffff1614156118a3576040517f08c379a000000000000000000000000000000000000000000000000000000000815260040161189a906133f5565b60405180910390fd5b6118ae838383611e03565b6118b9600082611626565b6001600360008573ffffffffffffffffffffffffffffffffffffffff1673ffffffffffffffffffffffffffffffffffffffff1681526020019081526020016000206000828254611909919061378b565b925050819055506001600360008473ffffffffffffffffffffffffffffffffffffffff1673ffffffffffffffffffffffffffffffffffffffff16815260200190815260200160002060008282546119609190613704565b92505081905550816002600083815260200190815260200160002060006101000a81548173ffffffffffffffffffffffffffffffffffffffff021916908373ffffffffffffffffffffffffffffffffffffffff160217905550808273ffffffffffffffffffffffffffffffffffffffff168473ffffffffffffffffffffffffffffffffffffffff167fddf252ad1be2c89b69c2b068fc378daa952ba7f163c4a11628f55a4df523b3ef60405160405180910390a4505050565b6001816000016000828254019250508190555050565b600081600001549050919050565b600073ffffffffffffffffffffffffffffffffffffffff168273ffffffffffffffffffffffffffffffffffffffff161415611aad576040517f08c379a0000000000000000000000000000000000000000000000000000000008152600401611aa4906134d5565b60405180910390fd5b611ab6816115b2565b15611af6576040517f08c379a0000000000000000000000000000000000000000000000000000000008152600401611aed906133d5565b60405180910390fd5b611b0260008383611e03565b6001600360008473ffffffffffffffffffffffffffffffffffffffff1673ffffffffffffffffffffffffffffffffffffffff1681526020019081526020016000206000828254611b529190613704565b92505081905550816002600083815260200190815260200160002060006101000a81548173ffffffffffffffffffffffffffffffffffffffff021916908373ffffffffffffffffffffffffffffffffffffffff160217905550808273ffffffffffffffffffffffffffffffffffffffff16600073ffffffffffffffffffffffffffffffffffffffff167fddf252ad1be2c89b69c2b068fc378daa952ba7f163c4a11628f55a4df523b3ef60405160405180910390a45050565b611c14826115b2565b611c53576040517f08c379a0000000000000000000000000000000000000000000000000000000008152600401611c4a906134b5565b60405180910390fd5b80600d60008481526020019081526020016000209080519060200190611c7a9291906125eb565b505050565b611c8a8484846117bd565b611c9684848484611f17565b611cd5576040517f08c379a0000000000000000000000000000000000000000000000000000000008152600401611ccc90613395565b60405180910390fd5b50505050565b606060405180602001604052806000815250905090565b6060611cfd826115b2565b611d3c576040517f08c379a0000000000000000000000000000000000000000000000000000000008152600401611d3390613575565b60405180910390fd5b6000611d46611cdb565b90506000815111611d665760405180602001604052806000815250611d91565b80611d70846120ae565b604051602001611d819291906132ad565b6040516020818303038152906040525b915050919050565b60007f01ffc9a7000000000000000000000000000000000000000000000000000000007bffffffffffffffffffffffffffffffffffffffffffffffffffffffff1916827bffffffffffffffffffffffffffffffffffffffffffffffffffffffff1916149050919050565b611e0e83838361225b565b600073ffffffffffffffffffffffffffffffffffffffff168373ffffffffffffffffffffffffffffffffffffffff161415611e5157611e4c81612260565b611e90565b8173ffffffffffffffffffffffffffffffffffffffff168373ffffffffffffffffffffffffffffffffffffffff1614611e8f57611e8e83826122a9565b5b5b600073ffffffffffffffffffffffffffffffffffffffff168273ffffffffffffffffffffffffffffffffffffffff161415611ed357611ece81612416565b611f12565b8273ffffffffffffffffffffffffffffffffffffffff168273ffffffffffffffffffffffffffffffffffffffff1614611f1157611f108282612559565b5b5b505050565b6000611f388473ffffffffffffffffffffffffffffffffffffffff166125d8565b156120a1578373ffffffffffffffffffffffffffffffffffffffff1663150b7a02611f6161161e565b8786866040518563ffffffff1660e01b8152600401611f8394939291906132ec565b602060405180830381600087803b158015611f9d57600080fd5b505af1925050508015611fce57506040513d601f19601f82011682018060405250810190611fcb9190612997565b60015b612051573d8060008114611ffe576040519150601f19603f3d011682016040523d82523d6000602084013e612003565b606091505b50600081511415612049576040517f08c379a000000000000000000000000000000000000000000000000000000000815260040161204090613395565b60405180910390fd5b805181602001fd5b63150b7a0260e01b7bffffffffffffffffffffffffffffffffffffffffffffffffffffffff1916817bffffffffffffffffffffffffffffffffffffffffffffffffffffffff1916149150506120a6565b600190505b949350505050565b606060008214156120f6576040518060400160405280600181526020017f30000000000000000000000000000000000000000000000000000000000000008152509050612256565b600082905060005b60008214612128578080612111906138a7565b915050600a82612121919061375a565b91506120fe565b60008167ffffffffffffffff81111561216a577f4e487b7100000000000000000000000000000000000000000000000000000000600052604160045260246000fd5b6040519080825280601f01601f19166020018201604052801561219c5781602001600182028036833780820191505090505b5090505b6000851461224f576001826121b5919061378b565b9150600a856121c491906138f0565b60306121d09190613704565b60f81b81838151811061220c577f4e487b7100000000000000000000000000000000000000000000000000000000600052603260045260246000fd5b60200101907effffffffffffffffffffffffffffffffffffffffffffffffffffffffffffff1916908160001a905350600a85612248919061375a565b94506121a0565b8093505050505b919050565b505050565b6008805490506009600083815260200190815260200160002081905550600881908060018154018082558091505060019003906000526020600020016000909190919091505550565b600060016122b684610c92565b6122c0919061378b565b90506000600760008481526020019081526020016000205490508181146123a5576000600660008673ffffffffffffffffffffffffffffffffffffffff1673ffffffffffffffffffffffffffffffffffffffff168152602001908152602001600020600084815260200190815260200160002054905080600660008773ffffffffffffffffffffffffffffffffffffffff1673ffffffffffffffffffffffffffffffffffffffff168152602001908152602001600020600084815260200190815260200160002081905550816007600083815260200190815260200160002081905550505b6007600084815260200190815260200160002060009055600660008573ffffffffffffffffffffffffffffffffffffffff1673ffffffffffffffffffffffffffffffffffffffff16815260200190815260200160002060008381526020019081526020016000206000905550505050565b6000600160088054905061242a919061378b565b9050600060096000848152602001908152602001600020549050600060088381548110612480577f4e487b7100000000000000000000000000000000000000000000000000000000600052603260045260246000fd5b9060005260206000200154905080600883815481106124c8577f4e487b7100000000000000000000000000000000000000000000000000000000600052603260045260246000fd5b90600052602060002001819055508160096000838152602001908152602001600020819055506009600085815260200190815260200160002060009055600880548061253d577f4e487b7100000000000000000000000000000000000000000000000000000000600052603160045260246000fd5b6001900381819060005260206000200160009055905550505050565b600061256483610c92565b905081600660008573ffffffffffffffffffffffffffffffffffffffff1673ffffffffffffffffffffffffffffffffffffffff168152602001908152602001600020600083815260200190815260200160002081905550806007600084815260200190815260200160002081905550505050565b600080823b905060008111915050919050565b8280546125f790613875565b90600052602060002090601f0160209004810192826126195760008555612660565b82601f1061263257805160ff1916838001178555612660565b82800160010185558215612660579182015b8281111561265f578251825591602001919060010190612644565b5b50905061266d9190612671565b5090565b5b8082111561268a576000816000905550600101612672565b5090565b60006126a161269c84613661565b613630565b9050828152602081018484840111156126b957600080fd5b6126c4848285613833565b509392505050565b60006126df6126da84613691565b613630565b9050828152602081018484840111156126f757600080fd5b612702848285613833565b509392505050565b600081359050612719816139ee565b92915050565b60008135905061272e81613a05565b92915050565b60008135905061274381613a1c565b92915050565b60008151905061275881613a1c565b92915050565b600082601f83011261276f57600080fd5b813561277f84826020860161268e565b91505092915050565b600082601f83011261279957600080fd5b81356127a98482602086016126cc565b91505092915050565b6000813590506127c181613a33565b92915050565b6000602082840312156127d957600080fd5b60006127e78482850161270a565b91505092915050565b6000806040838503121561280357600080fd5b60006128118582860161270a565b92505060206128228582860161270a565b9150509250929050565b60008060006060848603121561284157600080fd5b600061284f8682870161270a565b93505060206128608682870161270a565b9250506040612871868287016127b2565b9150509250925092565b6000806000806080858703121561289157600080fd5b600061289f8782880161270a565b94505060206128b08782880161270a565b93505060406128c1878288016127b2565b925050606085013567ffffffffffffffff8111156128de57600080fd5b6128ea8782880161275e565b91505092959194509250565b6000806040838503121561290957600080fd5b60006129178582860161270a565b92505060206129288582860161271f565b9150509250929050565b6000806040838503121561294557600080fd5b60006129538582860161270a565b9250506020612964858286016127b2565b9150509250929050565b60006020828403121561298057600080fd5b600061298e84828501612734565b91505092915050565b6000602082840312156129a957600080fd5b60006129b784828501612749565b91505092915050565b600080604083850312156129d357600080fd5b600083013567ffffffffffffffff8111156129ed57600080fd5b6129f985828601612788565b9250506020612a0a858286016127b2565b9150509250929050565b600060208284031215612a2657600080fd5b6000612a34848285016127b2565b91505092915050565b612a46816137bf565b82525050565b612a55816137d1565b82525050565b6000612a66826136c1565b612a7081856136d7565b9350612a80818560208601613842565b612a89816139dd565b840191505092915050565b6000612a9f826136cc565b612aa981856136e8565b9350612ab9818560208601613842565b612ac2816139dd565b840191505092915050565b6000612ad8826136cc565b612ae281856136f9565b9350612af2818560208601613842565b80840191505092915050565b6000612b0b602b836136e8565b91507f455243373231456e756d657261626c653a206f776e657220696e646578206f7560008301527f74206f6620626f756e64730000000000000000000000000000000000000000006020830152604082019050919050565b6000612b716032836136e8565b91507f4552433732313a207472616e7366657220746f206e6f6e20455243373231526560008301527f63656976657220696d706c656d656e74657200000000000000000000000000006020830152604082019050919050565b6000612bd76026836136e8565b91507f4f776e61626c653a206e6577206f776e657220697320746865207a65726f206160008301527f64647265737300000000000000000000000000000000000000000000000000006020830152604082019050919050565b6000612c3d601c836136e8565b91507f4552433732313a20746f6b656e20616c7265616479206d696e746564000000006000830152602082019050919050565b6000612c7d6024836136e8565b91507f4552433732313a207472616e7366657220746f20746865207a65726f2061646460008301527f72657373000000000000000000000000000000000000000000000000000000006020830152604082019050919050565b6000612ce36019836136e8565b91507f4552433732313a20617070726f766520746f2063616c6c6572000000000000006000830152602082019050919050565b6000612d23602c836136e8565b91507f4552433732313a206f70657261746f7220717565727920666f72206e6f6e657860008301527f697374656e7420746f6b656e00000000000000000000000000000000000000006020830152604082019050919050565b6000612d896038836136e8565b91507f4552433732313a20617070726f76652063616c6c6572206973206e6f74206f7760008301527f6e6572206e6f7220617070726f76656420666f7220616c6c00000000000000006020830152604082019050919050565b6000612def602a836136e8565b91507f4552433732313a2062616c616e636520717565727920666f7220746865207a6560008301527f726f2061646472657373000000000000000000000000000000000000000000006020830152604082019050919050565b6000612e556029836136e8565b91507f4552433732313a206f776e657220717565727920666f72206e6f6e657869737460008301527f656e7420746f6b656e00000000000000000000000000000000000000000000006020830152604082019050919050565b6000612ebb602e836136e8565b91507f45524337323155524953746f726167653a2055524920736574206f66206e6f6e60008301527f6578697374656e7420746f6b656e0000000000000000000000000000000000006020830152604082019050919050565b6000612f216020836136e8565b91507f4552433732313a206d696e7420746f20746865207a65726f20616464726573736000830152602082019050919050565b6000612f616031836136e8565b91507f45524337323155524953746f726167653a2055524920717565727920666f722060008301527f6e6f6e6578697374656e7420746f6b656e0000000000000000000000000000006020830152604082019050919050565b6000612fc7602c836136e8565b91507f4552433732313a20617070726f76656420717565727920666f72206e6f6e657860008301527f697374656e7420746f6b656e00000000000000000000000000000000000000006020830152604082019050919050565b600061302d6020836136e8565b91507f4f776e61626c653a2063616c6c6572206973206e6f7420746865206f776e65726000830152602082019050919050565b600061306d6029836136e8565b91507f4552433732313a207472616e73666572206f6620746f6b656e2074686174206960008301527f73206e6f74206f776e00000000000000000000000000000000000000000000006020830152604082019050919050565b60006130d3602f836136e8565b91507f4552433732314d657461646174613a2055524920717565727920666f72206e6f60008301527f6e6578697374656e7420746f6b656e00000000000000000000000000000000006020830152604082019050919050565b6000613139601d836136e8565b91507f596f75206e65656420746f206861766520656e6f7567682045746865720000006000830152602082019050919050565b60006131796021836136e8565b91507f4552433732313a20617070726f76616c20746f2063757272656e74206f776e6560008301527f72000000000000000000000000000000000000000000000000000000000000006020830152604082019050919050565b60006131df6031836136e8565b91507f4552433732313a207472616e736665722063616c6c6572206973206e6f74206f60008301527f776e6572206e6f7220617070726f7665640000000000000000000000000000006020830152604082019050919050565b6000613245602c836136e8565b91507f455243373231456e756d657261626c653a20676c6f62616c20696e646578206f60008301527f7574206f6620626f756e647300000000000000000000000000000000000000006020830152604082019050919050565b6132a781613829565b82525050565b60006132b98285612acd565b91506132c58284612acd565b91508190509392505050565b60006020820190506132e66000830184612a3d565b92915050565b60006080820190506133016000830187612a3d565b61330e6020830186612a3d565b61331b604083018561329e565b818103606083015261332d8184612a5b565b905095945050505050565b600060208201905061334d6000830184612a4c565b92915050565b6000602082019050818103600083015261336d8184612a94565b905092915050565b6000602082019050818103600083015261338e81612afe565b9050919050565b600060208201905081810360008301526133ae81612b64565b9050919050565b600060208201905081810360008301526133ce81612bca565b9050919050565b600060208201905081810360008301526133ee81612c30565b9050919050565b6000602082019050818103600083015261340e81612c70565b9050919050565b6000602082019050818103600083015261342e81612cd6565b9050919050565b6000602082019050818103600083015261344e81612d16565b9050919050565b6000602082019050818103600083015261346e81612d7c565b9050919050565b6000602082019050818103600083015261348e81612de2565b9050919050565b600060208201905081810360008301526134ae81612e48565b9050919050565b600060208201905081810360008301526134ce81612eae565b9050919050565b600060208201905081810360008301526134ee81612f14565b9050919050565b6000602082019050818103600083015261350e81612f54565b9050919050565b6000602082019050818103600083015261352e81612fba565b9050919050565b6000602082019050818103600083015261354e81613020565b9050919050565b6000602082019050818103600083015261356e81613060565b9050919050565b6000602082019050818103600083015261358e816130c6565b9050919050565b600060208201905081810360008301526135ae8161312c565b9050919050565b600060208201905081810360008301526135ce8161316c565b9050919050565b600060208201905081810360008301526135ee816131d2565b9050919050565b6000602082019050818103600083015261360e81613238565b9050919050565b600060208201905061362a600083018461329e565b92915050565b6000604051905081810181811067ffffffffffffffff82111715613657576136566139ae565b5b8060405250919050565b600067ffffffffffffffff82111561367c5761367b6139ae565b5b601f19601f8301169050602081019050919050565b600067ffffffffffffffff8211156136ac576136ab6139ae565b5b601f19601f8301169050602081019050919050565b600081519050919050565b600081519050919050565b600082825260208201905092915050565b600082825260208201905092915050565b600081905092915050565b600061370f82613829565b915061371a83613829565b9250827fffffffffffffffffffffffffffffffffffffffffffffffffffffffffffffffff0382111561374f5761374e613921565b5b828201905092915050565b600061376582613829565b915061377083613829565b9250826137805761377f613950565b5b828204905092915050565b600061379682613829565b91506137a183613829565b9250828210156137b4576137b3613921565b5b828203905092915050565b60006137ca82613809565b9050919050565b60008115159050919050565b60007fffffffff0000000000000000000000000000000000000000000000000000000082169050919050565b600073ffffffffffffffffffffffffffffffffffffffff82169050919050565b6000819050919050565b82818337600083830152505050565b60005b83811015613860578082015181840152602081019050613845565b8381111561386f576000848401525b50505050565b6000600282049050600182168061388d57607f821691505b602082108114156138a1576138a061397f565b5b50919050565b60006138b282613829565b91507fffffffffffffffffffffffffffffffffffffffffffffffffffffffffffffffff8214156138e5576138e4613921565b5b600182019050919050565b60006138fb82613829565b915061390683613829565b92508261391657613915613950565b5b828206905092915050565b7f4e487b7100000000000000000000000000000000000000000000000000000000600052601160045260246000fd5b7f4e487b7100000000000000000000000000000000000000000000000000000000600052601260045260246000fd5b7f4e487b7100000000000000000000000000000000000000000000000000000000600052602260045260246000fd5b7f4e487b7100000000000000000000000000000000000000000000000000000000600052604160045260246000fd5b6000601f19601f8301169050919050565b6139f7816137bf565b8114613a0257600080fd5b50565b613a0e816137d1565b8114613a1957600080fd5b50565b613a25816137dd565b8114613a3057600080fd5b50565b613a3c81613829565b8114613a4757600080fd5b5056fea26469706673582212201744e5fc08504446d02371ed0070199da368e7e5ce6159120665ea2d3c8c109c64736f6c63430008000033",
  "immutableReferences": {},
  "source": "// SPDX-License-Identifier: MIT\npragma solidity ^0.8.0;\n\nimport \"@openzeppelin/contracts/token/ERC721/extensions/ERC721Enumerable.sol\";\nimport \"@openzeppelin/contracts/utils/Counters.sol\";\nimport \"@openzeppelin/contracts/access/Ownable.sol\";\n\ncontract PetShop is ERC721Enumerable, Ownable {\n    \n    using Counters for Counters.Counter;\n    Counters.Counter private _tokenIds;\n    \n    using Strings for uint256;\n    \n    // mapping the TokenId and price\n    mapping(uint256 => uint256) public petsForSale;\n\n    // Optional mapping for token URIs\n    mapping (uint256 => string) private _tokenURIs;\n\n    constructor() ERC721(\"PetShopNFT\", \"PNFT\") {}\n\n    function tokenURI(uint256 tokenId) public view virtual override returns (string memory) {\n        require(_exists(tokenId), \"ERC721URIStorage: URI query for nonexistent token\");\n\n        string memory _tokenURI = _tokenURIs[tokenId];\n        string memory base = _baseURI();\n\n        // If there is no base URI, return the token URI.\n        if (bytes(base).length == 0) {\n            return _tokenURI;\n        }\n        // If both are set, concatenate the baseURI and tokenURI (via abi.encodePacked).\n        if (bytes(_tokenURI).length > 0) {\n            return string(abi.encodePacked(base, _tokenURI));\n        }\n\n        return super.tokenURI(tokenId);\n    }\n\n    /**\n     * @dev Sets `_tokenURI` as the tokenURI of `tokenId`.\n     *\n     * Requirements:\n     *\n     * - `tokenId` must exist.\n     */\n    function _setTokenURI(uint256 tokenId, string memory _tokenURI) internal virtual {\n        require(_exists(tokenId), \"ERC721URIStorage: URI set of nonexistent token\");\n        _tokenURIs[tokenId] = _tokenURI;\n    }\n\n    function mintPetNft(string memory _tokenURI,uint256 _price)\n        external\n        onlyOwner\n        returns (uint256)\n    {\n        _tokenIds.increment();\n        uint256 newItemId = _tokenIds.current();\n        \n        // _beforeTokenTransfer(address(0),owner(),newItemId);\n        _mint(owner(), newItemId);\n        petsForSale[newItemId] = _price;\n        _setTokenURI(newItemId, _tokenURI);\n\n        return newItemId;\n    }\n\n    function buyPetNft(uint256 _tokenId) public payable {\n    \n        uint256 petCost = petsForSale[_tokenId];\n        address ownerAddress = ownerOf(_tokenId);\n        require(msg.value >= petCost, \"You need to have enough Ether\");\n        // _beforeTokenTransfer(ownerAddress,msg.sender,_tokenId);\n        _safeTransfer(ownerAddress, msg.sender, _tokenId, \"\");\n         payable(ownerAddress).transfer(petCost);\n        if (msg.value > petCost) {\n            payable(msg.sender).transfer(msg.value - petCost);\n        }\n    }\n}\n",
  "sourcePath": "/home/asadullah/pet-shop/contracts/PetShop.sol",
  "compiler": {
    "name": "solc",
    "version": "0.8.0+commit.c7dfd78e.Emscripten.clang"
  },
  "schemaVersion": "3.2.0",
  "updatedAt": "2021-04-12T12:30:02.499Z",
  "networkType": "ethereum",
  "devdoc": {
    "kind": "dev",
    "methods": {
      "approve(address,uint256)": {
        "details": "See {IERC721-approve}."
      },
      "balanceOf(address)": {
        "details": "See {IERC721-balanceOf}."
      },
      "getApproved(uint256)": {
        "details": "See {IERC721-getApproved}."
      },
      "isApprovedForAll(address,address)": {
        "details": "See {IERC721-isApprovedForAll}."
      },
      "name()": {
        "details": "See {IERC721Metadata-name}."
      },
      "owner()": {
        "details": "Returns the address of the current owner."
      },
      "ownerOf(uint256)": {
        "details": "See {IERC721-ownerOf}."
      },
      "renounceOwnership()": {
        "details": "Leaves the contract without owner. It will not be possible to call `onlyOwner` functions anymore. Can only be called by the current owner. NOTE: Renouncing ownership will leave the contract without an owner, thereby removing any functionality that is only available to the owner."
      },
      "safeTransferFrom(address,address,uint256)": {
        "details": "See {IERC721-safeTransferFrom}."
      },
      "safeTransferFrom(address,address,uint256,bytes)": {
        "details": "See {IERC721-safeTransferFrom}."
      },
      "setApprovalForAll(address,bool)": {
        "details": "See {IERC721-setApprovalForAll}."
      },
      "supportsInterface(bytes4)": {
        "details": "See {IERC165-supportsInterface}."
      },
      "symbol()": {
        "details": "See {IERC721Metadata-symbol}."
      },
      "tokenByIndex(uint256)": {
        "details": "See {IERC721Enumerable-tokenByIndex}."
      },
      "tokenOfOwnerByIndex(address,uint256)": {
        "details": "See {IERC721Enumerable-tokenOfOwnerByIndex}."
      },
      "tokenURI(uint256)": {
        "details": "See {IERC721Metadata-tokenURI}."
      },
      "totalSupply()": {
        "details": "See {IERC721Enumerable-totalSupply}."
      },
      "transferFrom(address,address,uint256)": {
        "details": "See {IERC721-transferFrom}."
      },
      "transferOwnership(address)": {
        "details": "Transfers ownership of the contract to a new account (`newOwner`). Can only be called by the current owner."
      }
    },
    "version": 1
  },
  "userdoc": {
    "kind": "user",
    "methods": {},
    "version": 1
  }
}